{
  "transactions": [
    {
      "hash": "0x9c6b16e15ef490d9a605b40fb19d49afaec1f0ddcc4462475586e1f02b85c57b",
      "transactionType": "CALL",
      "contractName": null,
      "contractAddress": "0x60a15ca6b63508562d0cdc9cf896a9e3bbf79463",
      "function": "approve(address,uint256)",
      "arguments": [
        "0x0BF3dE8c5D3e8A2B34D2BEeB17ABfCeBaf363A59",
        "1000000000000000000"
      ],
      "transaction": {
        "from": "0x0bd7dd9a885d9526ff82813829ef5c7d8afdb8c4",
        "to": "0x60a15ca6b63508562d0cdc9cf896a9e3bbf79463",
        "gas": "0xfd73",
        "value": "0x0",
        "input": "0x095ea7b30000000000000000000000000bf3de8c5d3e8a2b34d2beeb17abfcebaf363a590000000000000000000000000000000000000000000000000de0b6b3a7640000",
        "nonce": "0x11",
        "chainId": "0xaa36a7"
      },
      "additionalContracts": [],
      "isFixedGasLimit": false
    },
    {
      "hash": "0x78029e055c1aa1821c19f89812fe5cc9d20d69a39a5d0c04c189b7cfb1ab51a3",
      "transactionType": "CALL",
      "contractName": null,
      "contractAddress": "0x0bf3de8c5d3e8a2b34d2beeb17abfcebaf363a59",
      "function": "ccipSend(uint64,(bytes,bytes,(address,uint256)[],address,bytes))",
      "arguments": [
        "14767482510784806043",
        "(0x0000000000000000000000001804c8ab1f12e6bbf3894d4083f33e07309d1f38, 0x, [(0x60A15CA6b63508562d0Cdc9Cf896A9e3bBF79463, 1000000000000000000)], 0x0000000000000000000000000000000000000000, 0x97a657c90000000000000000000000000000000000000000000000000000000000000000)"
      ],
      "transaction": {
        "from": "0x0bd7dd9a885d9526ff82813829ef5c7d8afdb8c4",
        "to": "0x0bf3de8c5d3e8a2b34d2beeb17abfcebaf363a59",
        "gas": "0x49eac",
        "value": "0x5d65b294efbd",
        "input": "0x96f4e9f9000000000000000000000000000000000000000000000000ccf0a31a221f3c9b000000000000000000000000000000000000000000000000000000000000004000000000000000000000000000000000000000000000000000000000000000a000000000000000000000000000000000000000000000000000000000000000e000000000000000000000000000000000000000000000000000000000000001000000000000000000000000000000000000000000000000000000000000000000000000000000000000000000000000000000000000000000000000000000016000000000000000000000000000000000000000000000000000000000000000200000000000000000000000001804c8ab1f12e6bbf3894d4083f33e07309d1f380000000000000000000000000000000000000000000000000000000000000000000000000000000000000000000000000000000000000000000000000000000100000000000000000000000060a15ca6b63508562d0cdc9cf896a9e3bbf794630000000000000000000000000000000000000000000000000de0b6b3a7640000000000000000000000000000000000000000000000000000000000000000002497a657c9000000000000000000000000000000000000000000000000000000000000000000000000000000000000000000000000000000000000000000000000",
        "nonce": "0x12",
        "chainId": "0xaa36a7"
      },
      "additionalContracts": [],
      "isFixedGasLimit": false
    }
  ],
  "receipts": [
    {
      "status": "0x1",
      "cumulativeGasUsed": "0x11ed577",
      "logs": [
        {
          "address": "0x60a15ca6b63508562d0cdc9cf896a9e3bbf79463",
          "topics": [
            "0x8c5be1e5ebec7d5bd14f71427d1e84f3dd0314c0f7b2291e5b200ac8c7c3b925",
            "0x0000000000000000000000000bd7dd9a885d9526ff82813829ef5c7d8afdb8c4",
            "0x0000000000000000000000000bf3de8c5d3e8a2b34d2beeb17abfcebaf363a59"
          ],
          "data": "0x0000000000000000000000000000000000000000000000000de0b6b3a7640000",
          "blockHash": "0x557fa1f44ebb1ccad9fb086871d9153b8251485c4ac74450a4f45f239b28db6f",
          "blockNumber": "0x83147b",
          "blockTimestamp": "0x6855696c",
          "transactionHash": "0x9c6b16e15ef490d9a605b40fb19d49afaec1f0ddcc4462475586e1f02b85c57b",
          "transactionIndex": "0x7f",
          "logIndex": "0xc2",
          "removed": false
        }
      ],
      "logsBloom": "0x000000000000400000000000000000000000000000000000000000000000000000000000000008000000000000000000000000000000000000000000002000000000000000000000000000000000000000000000000000000000000000000000000000000001000000000000000000000000000000000000000000000000000000000000000000000100000000000000004000000000200000000000000000000200000000000800000000000000000000000000000000000000000000000000000000000000000000000000000000000000000000000000000000000000000000100000000000000000000000000000a0000000000000000000000000000000",
      "type": "0x2",
      "transactionHash": "0x9c6b16e15ef490d9a605b40fb19d49afaec1f0ddcc4462475586e1f02b85c57b",
      "transactionIndex": "0x7f",
      "blockHash": "0x557fa1f44ebb1ccad9fb086871d9153b8251485c4ac74450a4f45f239b28db6f",
      "blockNumber": "0x83147b",
      "gasUsed": "0xb77f",
      "effectiveGasPrice": "0x46626d5",
      "from": "0x0bd7dd9a885d9526ff82813829ef5c7d8afdb8c4",
      "to": "0x60a15ca6b63508562d0cdc9cf896a9e3bbf79463",
      "contractAddress": null
    },
    {
      "status": "0x1",
      "cumulativeGasUsed": "0x1222db4",
      "logs": [
        {
          "address": "0x097d90c9d3e0b50ca60e1ae45f6a81010f9fb534",
          "topics": [
            "0xe1fffcc4923d04b559f4d29a8bfc6cda04eb5b0d3c460751c2402c5c5cc9109c",
            "0x0000000000000000000000000bf3de8c5d3e8a2b34d2beeb17abfcebaf363a59"
          ],
          "data": "0x00000000000000000000000000000000000000000000000000005d65b294efbd",
          "blockHash": "0x557fa1f44ebb1ccad9fb086871d9153b8251485c4ac74450a4f45f239b28db6f",
          "blockNumber": "0x83147b",
          "blockTimestamp": "0x6855696c",
          "transactionHash": "0x78029e055c1aa1821c19f89812fe5cc9d20d69a39a5d0c04c189b7cfb1ab51a3",
          "transactionIndex": "0x80",
          "logIndex": "0xc3",
          "removed": false
        },
        {
          "address": "0x097d90c9d3e0b50ca60e1ae45f6a81010f9fb534",
          "topics": [
            "0xddf252ad1be2c89b69c2b068fc378daa952ba7f163c4a11628f55a4df523b3ef",
            "0x0000000000000000000000000bf3de8c5d3e8a2b34d2beeb17abfcebaf363a59",
            "0x00000000000000000000000012492154714fbd28f28219f6fc4315d19de1025b"
          ],
          "data": "0x00000000000000000000000000000000000000000000000000005d65b294efbd",
          "blockHash": "0x557fa1f44ebb1ccad9fb086871d9153b8251485c4ac74450a4f45f239b28db6f",
          "blockNumber": "0x83147b",
          "blockTimestamp": "0x6855696c",
          "transactionHash": "0x78029e055c1aa1821c19f89812fe5cc9d20d69a39a5d0c04c189b7cfb1ab51a3",
          "transactionIndex": "0x80",
          "logIndex": "0xc4",
          "removed": false
        },
        {
          "address": "0x60a15ca6b63508562d0cdc9cf896a9e3bbf79463",
          "topics": [
            "0xddf252ad1be2c89b69c2b068fc378daa952ba7f163c4a11628f55a4df523b3ef",
            "0x0000000000000000000000000bd7dd9a885d9526ff82813829ef5c7d8afdb8c4",
            "0x0000000000000000000000007c84f757f4db3a80be60b269e6b993740f24e5e9"
          ],
          "data": "0x0000000000000000000000000000000000000000000000000de0b6b3a7640000",
          "blockHash": "0x557fa1f44ebb1ccad9fb086871d9153b8251485c4ac74450a4f45f239b28db6f",
          "blockNumber": "0x83147b",
          "blockTimestamp": "0x6855696c",
          "transactionHash": "0x78029e055c1aa1821c19f89812fe5cc9d20d69a39a5d0c04c189b7cfb1ab51a3",
          "transactionIndex": "0x80",
          "logIndex": "0xc5",
          "removed": false
        },
        {
          "address": "0x60a15ca6b63508562d0cdc9cf896a9e3bbf79463",
          "topics": [
            "0xddf252ad1be2c89b69c2b068fc378daa952ba7f163c4a11628f55a4df523b3ef",
            "0x0000000000000000000000007c84f757f4db3a80be60b269e6b993740f24e5e9",
            "0x0000000000000000000000000000000000000000000000000000000000000000"
          ],
          "data": "0x0000000000000000000000000000000000000000000000000de0b6b3a7640000",
          "blockHash": "0x557fa1f44ebb1ccad9fb086871d9153b8251485c4ac74450a4f45f239b28db6f",
          "blockNumber": "0x83147b",
          "blockTimestamp": "0x6855696c",
          "transactionHash": "0x78029e055c1aa1821c19f89812fe5cc9d20d69a39a5d0c04c189b7cfb1ab51a3",
          "transactionIndex": "0x80",
          "logIndex": "0xc6",
          "removed": false
        },
        {
          "address": "0x7c84f757f4db3a80be60b269e6b993740f24e5e9",
          "topics": [
            "0x696de425f79f4a40bc6d2122ca50507f0efbeabbff86a84871b7196ab8ea8df7",
            "0x00000000000000000000000012492154714fbd28f28219f6fc4315d19de1025b"
          ],
          "data": "0x0000000000000000000000000000000000000000000000000de0b6b3a7640000",
          "blockHash": "0x557fa1f44ebb1ccad9fb086871d9153b8251485c4ac74450a4f45f239b28db6f",
          "blockNumber": "0x83147b",
          "blockTimestamp": "0x6855696c",
          "transactionHash": "0x78029e055c1aa1821c19f89812fe5cc9d20d69a39a5d0c04c189b7cfb1ab51a3",
          "transactionIndex": "0x80",
          "logIndex": "0xc7",
          "removed": false
        },
        {
          "address": "0x12492154714fbd28f28219f6fc4315d19de1025b",
          "topics": [
            "0xd0c3c799bf9e2639de44391e7f524d229b2b55f5b1ea94b2bf7da42f7243dddd"
          ],
          "data": "0x0000000000000000000000000000000000000000000000000000000000000020000000000000000000000000000000000000000000000000de41ba4fc9d91ad90000000000000000000000000bd7dd9a885d9526ff82813829ef5c7d8afdb8c40000000000000000000000001804c8ab1f12e6bbf3894d4083f33e07309d1f380000000000000000000000000000000000000000000000000000000000002eba000000000000000000000000000000000000000000000000000000000000000000000000000000000000000000000000000000000000000000000000000000000000000000000000000000000000000000000000000000000000000000000001000000000000000000000000097d90c9d3e0b50ca60e1ae45f6a81010f9fb53400000000000000000000000000000000000000000000000000005d65b294efbd00000000000000000000000000000000000000000000000000000000000001a000000000000000000000000000000000000000000000000000000000000001c000000000000000000000000000000000000000000000000000000000000002202116d673630f71d997c54abaa690b60a8303e7b8d3cd6d2beaf5fa0824408bcb0000000000000000000000000000000000000000000000000000000000000000000000000000000000000000000000000000000000000000000000000000000100000000000000000000000060a15ca6b63508562d0cdc9cf896a9e3bbf794630000000000000000000000000000000000000000000000000de0b6b3a76400000000000000000000000000000000000000000000000000000000000000000001000000000000000000000000000000000000000000000000000000000000002000000000000000000000000000000000000000000000000000000000000001600000000000000000000000000000000000000000000000000000000000000020000000000000000000000000000000000000000000000000000000000000008000000000000000000000000000000000000000000000000000000000000000c000000000000000000000000000000000000000000000000000000000000001000000000000000000000000000000000000000000000000000000000000015f9000000000000000000000000000000000000000000000000000000000000000200000000000000000000000007c84f757f4db3a80be60b269e6b993740f24e5e9000000000000000000000000000000000000000000000000000000000000002000000000000000000000000060a15ca6b63508562d0cdc9cf896a9e3bbf7946300000000000000000000000000000000000000000000000000000000000000200000000000000000000000000000000000000000000000000000000000000012",
          "blockHash": "0x557fa1f44ebb1ccad9fb086871d9153b8251485c4ac74450a4f45f239b28db6f",
          "blockNumber": "0x83147b",
          "blockTimestamp": "0x6855696c",
          "transactionHash": "0x78029e055c1aa1821c19f89812fe5cc9d20d69a39a5d0c04c189b7cfb1ab51a3",
          "transactionIndex": "0x80",
          "logIndex": "0xc8",
          "removed": false
        }
      ],
      "logsBloom": "0x000000000000400000000000000000000004000000000000000000000000000000000000000008000020020000000008000000000000000000000000000000000000000000000000000000080040000000000000000800000000000081000000000000000601000200000004000008020000000000000000000000100000000000000000080000000100000000000000004000010000200000008000000000000000000000000804000000000000000000000000000000000001000010000000000000020000000000000000000000000000000000000000002000008000202000000000400000000000000000000000a4000000000000400000000000000000",
      "type": "0x2",
      "transactionHash": "0x78029e055c1aa1821c19f89812fe5cc9d20d69a39a5d0c04c189b7cfb1ab51a3",
      "transactionIndex": "0x80",
      "blockHash": "0x557fa1f44ebb1ccad9fb086871d9153b8251485c4ac74450a4f45f239b28db6f",
      "blockNumber": "0x83147b",
      "gasUsed": "0x3583d",
      "effectiveGasPrice": "0x46626d5",
      "from": "0x0bd7dd9a885d9526ff82813829ef5c7d8afdb8c4",
      "to": "0x0bf3de8c5d3e8a2b34d2beeb17abfcebaf363a59",
      "contractAddress": null
    }
  ],
  "libraries": [],
  "pending": [],
  "returns": {},
  "timestamp": 1750428014,
  "chain": 11155111,
  "commit": "a443f1a"
}