{
  "transactions": [
    {
      "hash": "0x92df9f5cb48c8d2c9109d56e24ba802efd4dea1dc6b06f9dbaea59683d08f85b",
      "transactionType": "CALL",
      "contractName": null,
      "contractAddress": "0x60a15ca6b63508562d0cdc9cf896a9e3bbf79463",
      "function": "approve(address,uint256)",
      "arguments": [
        "0x0BF3dE8c5D3e8A2B34D2BEeB17ABfCeBaf363A59",
        "1000000000000000000"
      ],
      "transaction": {
        "from": "0x0bd7dd9a885d9526ff82813829ef5c7d8afdb8c4",
        "to": "0x60a15ca6b63508562d0cdc9cf896a9e3bbf79463",
        "gas": "0xfd73",
        "value": "0x0",
        "input": "0x095ea7b30000000000000000000000000bf3de8c5d3e8a2b34d2beeb17abfcebaf363a590000000000000000000000000000000000000000000000000de0b6b3a7640000",
        "nonce": "0x16",
        "chainId": "0xaa36a7"
      },
      "additionalContracts": [],
      "isFixedGasLimit": false
    },
    {
      "hash": "0x291289c1fce068d4645de720749d02b4955e4382f0e538da503d0eaf95cfe719",
      "transactionType": "CALL",
      "contractName": null,
      "contractAddress": "0x0bf3de8c5d3e8a2b34d2beeb17abfcebaf363a59",
      "function": "ccipSend(uint64,(bytes,bytes,(address,uint256)[],address,bytes))",
      "arguments": [
        "14767482510784806043",
        "(0x0000000000000000000000000bd7dd9a885d9526ff82813829ef5c7d8afdb8c4, 0x, [(0x60A15CA6b63508562d0Cdc9Cf896A9e3bBF79463, 1000000000000000000)], 0x0000000000000000000000000000000000000000, 0x97a657c90000000000000000000000000000000000000000000000000000000000000000)"
      ],
      "transaction": {
        "from": "0x0bd7dd9a885d9526ff82813829ef5c7d8afdb8c4",
        "to": "0x0bf3de8c5d3e8a2b34d2beeb17abfcebaf363a59",
        "gas": "0x4221f",
        "value": "0x5d65b294efbd",
        "input": "0x96f4e9f9000000000000000000000000000000000000000000000000ccf0a31a221f3c9b000000000000000000000000000000000000000000000000000000000000004000000000000000000000000000000000000000000000000000000000000000a000000000000000000000000000000000000000000000000000000000000000e000000000000000000000000000000000000000000000000000000000000001000000000000000000000000000000000000000000000000000000000000000000000000000000000000000000000000000000000000000000000000000000016000000000000000000000000000000000000000000000000000000000000000200000000000000000000000000bd7dd9a885d9526ff82813829ef5c7d8afdb8c40000000000000000000000000000000000000000000000000000000000000000000000000000000000000000000000000000000000000000000000000000000100000000000000000000000060a15ca6b63508562d0cdc9cf896a9e3bbf794630000000000000000000000000000000000000000000000000de0b6b3a7640000000000000000000000000000000000000000000000000000000000000000002497a657c9000000000000000000000000000000000000000000000000000000000000000000000000000000000000000000000000000000000000000000000000",
        "nonce": "0x17",
        "chainId": "0xaa36a7"
      },
      "additionalContracts": [],
      "isFixedGasLimit": false
    }
  ],
  "receipts": [
    {
      "status": "0x1",
      "cumulativeGasUsed": "0x127598c",
      "logs": [
        {
          "address": "0x60a15ca6b63508562d0cdc9cf896a9e3bbf79463",
          "topics": [
            "0x8c5be1e5ebec7d5bd14f71427d1e84f3dd0314c0f7b2291e5b200ac8c7c3b925",
            "0x0000000000000000000000000bd7dd9a885d9526ff82813829ef5c7d8afdb8c4",
            "0x0000000000000000000000000bf3de8c5d3e8a2b34d2beeb17abfcebaf363a59"
          ],
          "data": "0x0000000000000000000000000000000000000000000000000de0b6b3a7640000",
          "blockHash": "0xd27a62eb7e62abbac38b9ea99d723f706281b35f1ab6d409744dbf080edb4829",
          "blockNumber": "0x8314a1",
          "blockTimestamp": "0x68556b34",
          "transactionHash": "0x92df9f5cb48c8d2c9109d56e24ba802efd4dea1dc6b06f9dbaea59683d08f85b",
          "transactionIndex": "0x7c",
          "logIndex": "0xa3",
          "removed": false
        }
      ],
      "logsBloom": "0x000000000000400000000000000000000000000000000000000000000000000000000000000008000000000000000000000000000000000000000000002000000000000000000000000000000000000000000000000000000000000000000000000000000001000000000000000000000000000000000000000000000000000000000000000000000100000000000000004000000000200000000000000000000200000000000800000000000000000000000000000000000000000000000000000000000000000000000000000000000000000000000000000000000000000000100000000000000000000000000000a0000000000000000000000000000000",
      "type": "0x2",
      "transactionHash": "0x92df9f5cb48c8d2c9109d56e24ba802efd4dea1dc6b06f9dbaea59683d08f85b",
      "transactionIndex": "0x7c",
      "blockHash": "0xd27a62eb7e62abbac38b9ea99d723f706281b35f1ab6d409744dbf080edb4829",
      "blockNumber": "0x8314a1",
      "gasUsed": "0xb77f",
      "effectiveGasPrice": "0x28b4bcc",
      "from": "0x0bd7dd9a885d9526ff82813829ef5c7d8afdb8c4",
      "to": "0x60a15ca6b63508562d0cdc9cf896a9e3bbf79463",
      "contractAddress": null
    },
    {
      "status": "0x1",
      "cumulativeGasUsed": "0x12a579c",
      "logs": [
        {
          "address": "0x097d90c9d3e0b50ca60e1ae45f6a81010f9fb534",
          "topics": [
            "0xe1fffcc4923d04b559f4d29a8bfc6cda04eb5b0d3c460751c2402c5c5cc9109c",
            "0x0000000000000000000000000bf3de8c5d3e8a2b34d2beeb17abfcebaf363a59"
          ],
          "data": "0x00000000000000000000000000000000000000000000000000005d65b294efbd",
          "blockHash": "0xd27a62eb7e62abbac38b9ea99d723f706281b35f1ab6d409744dbf080edb4829",
          "blockNumber": "0x8314a1",
          "blockTimestamp": "0x68556b34",
          "transactionHash": "0x291289c1fce068d4645de720749d02b4955e4382f0e538da503d0eaf95cfe719",
          "transactionIndex": "0x7d",
          "logIndex": "0xa4",
          "removed": false
        },
        {
          "address": "0x097d90c9d3e0b50ca60e1ae45f6a81010f9fb534",
          "topics": [
            "0xddf252ad1be2c89b69c2b068fc378daa952ba7f163c4a11628f55a4df523b3ef",
            "0x0000000000000000000000000bf3de8c5d3e8a2b34d2beeb17abfcebaf363a59",
            "0x00000000000000000000000012492154714fbd28f28219f6fc4315d19de1025b"
          ],
          "data": "0x00000000000000000000000000000000000000000000000000005d65b294efbd",
          "blockHash": "0xd27a62eb7e62abbac38b9ea99d723f706281b35f1ab6d409744dbf080edb4829",
          "blockNumber": "0x8314a1",
          "blockTimestamp": "0x68556b34",
          "transactionHash": "0x291289c1fce068d4645de720749d02b4955e4382f0e538da503d0eaf95cfe719",
          "transactionIndex": "0x7d",
          "logIndex": "0xa5",
          "removed": false
        },
        {
          "address": "0x60a15ca6b63508562d0cdc9cf896a9e3bbf79463",
          "topics": [
            "0xddf252ad1be2c89b69c2b068fc378daa952ba7f163c4a11628f55a4df523b3ef",
            "0x0000000000000000000000000bd7dd9a885d9526ff82813829ef5c7d8afdb8c4",
            "0x0000000000000000000000007c84f757f4db3a80be60b269e6b993740f24e5e9"
          ],
          "data": "0x0000000000000000000000000000000000000000000000000de0b6b3a7640000",
          "blockHash": "0xd27a62eb7e62abbac38b9ea99d723f706281b35f1ab6d409744dbf080edb4829",
          "blockNumber": "0x8314a1",
          "blockTimestamp": "0x68556b34",
          "transactionHash": "0x291289c1fce068d4645de720749d02b4955e4382f0e538da503d0eaf95cfe719",
          "transactionIndex": "0x7d",
          "logIndex": "0xa6",
          "removed": false
        },
        {
          "address": "0x60a15ca6b63508562d0cdc9cf896a9e3bbf79463",
          "topics": [
            "0xddf252ad1be2c89b69c2b068fc378daa952ba7f163c4a11628f55a4df523b3ef",
            "0x0000000000000000000000007c84f757f4db3a80be60b269e6b993740f24e5e9",
            "0x0000000000000000000000000000000000000000000000000000000000000000"
          ],
          "data": "0x0000000000000000000000000000000000000000000000000de0b6b3a7640000",
          "blockHash": "0xd27a62eb7e62abbac38b9ea99d723f706281b35f1ab6d409744dbf080edb4829",
          "blockNumber": "0x8314a1",
          "blockTimestamp": "0x68556b34",
          "transactionHash": "0x291289c1fce068d4645de720749d02b4955e4382f0e538da503d0eaf95cfe719",
          "transactionIndex": "0x7d",
          "logIndex": "0xa7",
          "removed": false
        },
        {
          "address": "0x7c84f757f4db3a80be60b269e6b993740f24e5e9",
          "topics": [
            "0x696de425f79f4a40bc6d2122ca50507f0efbeabbff86a84871b7196ab8ea8df7",
            "0x00000000000000000000000012492154714fbd28f28219f6fc4315d19de1025b"
          ],
          "data": "0x0000000000000000000000000000000000000000000000000de0b6b3a7640000",
          "blockHash": "0xd27a62eb7e62abbac38b9ea99d723f706281b35f1ab6d409744dbf080edb4829",
          "blockNumber": "0x8314a1",
          "blockTimestamp": "0x68556b34",
          "transactionHash": "0x291289c1fce068d4645de720749d02b4955e4382f0e538da503d0eaf95cfe719",
          "transactionIndex": "0x7d",
          "logIndex": "0xa8",
          "removed": false
        },
        {
          "address": "0x12492154714fbd28f28219f6fc4315d19de1025b",
          "topics": [
            "0xd0c3c799bf9e2639de44391e7f524d229b2b55f5b1ea94b2bf7da42f7243dddd"
          ],
          "data": "0x0000000000000000000000000000000000000000000000000000000000000020000000000000000000000000000000000000000000000000de41ba4fc9d91ad90000000000000000000000000bd7dd9a885d9526ff82813829ef5c7d8afdb8c40000000000000000000000000bd7dd9a885d9526ff82813829ef5c7d8afdb8c40000000000000000000000000000000000000000000000000000000000002ebc000000000000000000000000000000000000000000000000000000000000000000000000000000000000000000000000000000000000000000000000000000000000000000000000000000000000000000000000000000000000000000000003000000000000000000000000097d90c9d3e0b50ca60e1ae45f6a81010f9fb53400000000000000000000000000000000000000000000000000005d65b294efbd00000000000000000000000000000000000000000000000000000000000001a000000000000000000000000000000000000000000000000000000000000001c0000000000000000000000000000000000000000000000000000000000000022063433177a681b38da296e9354417629af160119595a6b5630639f783c58895cc0000000000000000000000000000000000000000000000000000000000000000000000000000000000000000000000000000000000000000000000000000000100000000000000000000000060a15ca6b63508562d0cdc9cf896a9e3bbf794630000000000000000000000000000000000000000000000000de0b6b3a76400000000000000000000000000000000000000000000000000000000000000000001000000000000000000000000000000000000000000000000000000000000002000000000000000000000000000000000000000000000000000000000000001600000000000000000000000000000000000000000000000000000000000000020000000000000000000000000000000000000000000000000000000000000008000000000000000000000000000000000000000000000000000000000000000c000000000000000000000000000000000000000000000000000000000000001000000000000000000000000000000000000000000000000000000000000015f9000000000000000000000000000000000000000000000000000000000000000200000000000000000000000007c84f757f4db3a80be60b269e6b993740f24e5e9000000000000000000000000000000000000000000000000000000000000002000000000000000000000000060a15ca6b63508562d0cdc9cf896a9e3bbf7946300000000000000000000000000000000000000000000000000000000000000200000000000000000000000000000000000000000000000000000000000000012",
          "blockHash": "0xd27a62eb7e62abbac38b9ea99d723f706281b35f1ab6d409744dbf080edb4829",
          "blockNumber": "0x8314a1",
          "blockTimestamp": "0x68556b34",
          "transactionHash": "0x291289c1fce068d4645de720749d02b4955e4382f0e538da503d0eaf95cfe719",
          "transactionIndex": "0x7d",
          "logIndex": "0xa9",
          "removed": false
        }
      ],
      "logsBloom": "0x000000000000400000000000000000000004000000000000000000000000000000000000000008000020020000000008000000000000000000000000000000000000000000000000000000080040000000000000000800000000000081000000000000000601000200000004000008020000000000000000000000100000000000000000080000000100000000000000004000010000200000008000000000000000000000000804000000000000000000000000000000000001000010000000000000020000000000000000000000000000000000000000002000008000202000000000400000000000000000000000a4000000000000400000000000000000",
      "type": "0x2",
      "transactionHash": "0x291289c1fce068d4645de720749d02b4955e4382f0e538da503d0eaf95cfe719",
      "transactionIndex": "0x7d",
      "blockHash": "0xd27a62eb7e62abbac38b9ea99d723f706281b35f1ab6d409744dbf080edb4829",
      "blockNumber": "0x8314a1",
      "gasUsed": "0x2fe10",
      "effectiveGasPrice": "0x28b4bcc",
      "from": "0x0bd7dd9a885d9526ff82813829ef5c7d8afdb8c4",
      "to": "0x0bf3de8c5d3e8a2b34d2beeb17abfcebaf363a59",
      "contractAddress": null
    }
  ],
  "libraries": [],
  "pending": [],
  "returns": {},
  "timestamp": 1750428469,
  "chain": 11155111,
  "commit": "a443f1a"
}