{
  "transactions": [
    {
      "hash": "0xb6ef3717dcf70779ccfdcf6c71a3771db720c199acaadc738c6feb40545dc8d6",
      "transactionType": "CALL",
      "contractName": null,
      "contractAddress": "0x60a15ca6b63508562d0cdc9cf896a9e3bbf79463",
      "function": "approve(address,uint256)",
      "arguments": [
        "0x0BF3dE8c5D3e8A2B34D2BEeB17ABfCeBaf363A59",
        "1000000000000000000"
      ],
      "transaction": {
        "from": "0x0bd7dd9a885d9526ff82813829ef5c7d8afdb8c4",
        "to": "0x60a15ca6b63508562d0cdc9cf896a9e3bbf79463",
        "gas": "0xfd73",
        "value": "0x0",
        "input": "0x095ea7b30000000000000000000000000bf3de8c5d3e8a2b34d2beeb17abfcebaf363a590000000000000000000000000000000000000000000000000de0b6b3a7640000",
        "nonce": "0x13",
        "chainId": "0xaa36a7"
      },
      "additionalContracts": [],
      "isFixedGasLimit": false
    },
    {
      "hash": "0xb99a03c4840bd8bb13715cd7f7f83632abdc4f35ae6ee57dcbc035087c46462f",
      "transactionType": "CALL",
      "contractName": null,
      "contractAddress": "0x779877a7b0d9e8603169ddbd7836e478b4624789",
      "function": "approve(address,uint256)",
      "arguments": [
        "0x0BF3dE8c5D3e8A2B34D2BEeB17ABfCeBaf363A59",
        "17808287444211826"
      ],
      "transaction": {
        "from": "0x0bd7dd9a885d9526ff82813829ef5c7d8afdb8c4",
        "to": "0x779877a7b0d9e8603169ddbd7836e478b4624789",
        "gas": "0x1081f",
        "value": "0x0",
        "input": "0x095ea7b30000000000000000000000000bf3de8c5d3e8a2b34d2beeb17abfcebaf363a59000000000000000000000000000000000000000000000000003f448b072b9872",
        "nonce": "0x14",
        "chainId": "0xaa36a7"
      },
      "additionalContracts": [],
      "isFixedGasLimit": false
    },
    {
      "hash": "0x3d2f864e86b327ff268bcd17b90aabc230a4776424ed9c7d290dcfdf8805e5d7",
      "transactionType": "CALL",
      "contractName": null,
      "contractAddress": "0x0bf3de8c5d3e8a2b34d2beeb17abfcebaf363a59",
      "function": "ccipSend(uint64,(bytes,bytes,(address,uint256)[],address,bytes))",
      "arguments": [
        "14767482510784806043",
        "(0x0000000000000000000000000bd7dd9a885d9526ff82813829ef5c7d8afdb8c4, 0x, [(0x60A15CA6b63508562d0Cdc9Cf896A9e3bBF79463, 1000000000000000000)], 0x779877A7B0D9E8603169DdbD7836e478b4624789, 0x97a657c90000000000000000000000000000000000000000000000000000000000000000)"
      ],
      "transaction": {
        "from": "0x0bd7dd9a885d9526ff82813829ef5c7d8afdb8c4",
        "to": "0x0bf3de8c5d3e8a2b34d2beeb17abfcebaf363a59",
        "gas": "0x42a20",
        "value": "0x0",
        "input": "0x96f4e9f9000000000000000000000000000000000000000000000000ccf0a31a221f3c9b000000000000000000000000000000000000000000000000000000000000004000000000000000000000000000000000000000000000000000000000000000a000000000000000000000000000000000000000000000000000000000000000e00000000000000000000000000000000000000000000000000000000000000100000000000000000000000000779877a7b0d9e8603169ddbd7836e478b4624789000000000000000000000000000000000000000000000000000000000000016000000000000000000000000000000000000000000000000000000000000000200000000000000000000000000bd7dd9a885d9526ff82813829ef5c7d8afdb8c40000000000000000000000000000000000000000000000000000000000000000000000000000000000000000000000000000000000000000000000000000000100000000000000000000000060a15ca6b63508562d0cdc9cf896a9e3bbf794630000000000000000000000000000000000000000000000000de0b6b3a7640000000000000000000000000000000000000000000000000000000000000000002497a657c9000000000000000000000000000000000000000000000000000000000000000000000000000000000000000000000000000000000000000000000000",
        "nonce": "0x15",
        "chainId": "0xaa36a7"
      },
      "additionalContracts": [],
      "isFixedGasLimit": false
    }
  ],
  "receipts": [
    {
      "status": "0x1",
      "cumulativeGasUsed": "0xd9a36e",
      "logs": [
        {
          "address": "0x60a15ca6b63508562d0cdc9cf896a9e3bbf79463",
          "topics": [
            "0x8c5be1e5ebec7d5bd14f71427d1e84f3dd0314c0f7b2291e5b200ac8c7c3b925",
            "0x0000000000000000000000000bd7dd9a885d9526ff82813829ef5c7d8afdb8c4",
            "0x0000000000000000000000000bf3de8c5d3e8a2b34d2beeb17abfcebaf363a59"
          ],
          "data": "0x0000000000000000000000000000000000000000000000000de0b6b3a7640000",
          "blockHash": "0x76e487ed3e89af1f62cfdac4263a366b4aa15c0c5d4920813408cdcd89ba9496",
          "blockNumber": "0x83149b",
          "blockTimestamp": "0x68556aec",
          "transactionHash": "0xb6ef3717dcf70779ccfdcf6c71a3771db720c199acaadc738c6feb40545dc8d6",
          "transactionIndex": "0x7f",
          "logIndex": "0xbd",
          "removed": false
        }
      ],
      "logsBloom": "0x000000000000400000000000000000000000000000000000000000000000000000000000000008000000000000000000000000000000000000000000002000000000000000000000000000000000000000000000000000000000000000000000000000000001000000000000000000000000000000000000000000000000000000000000000000000100000000000000004000000000200000000000000000000200000000000800000000000000000000000000000000000000000000000000000000000000000000000000000000000000000000000000000000000000000000100000000000000000000000000000a0000000000000000000000000000000",
      "type": "0x2",
      "transactionHash": "0xb6ef3717dcf70779ccfdcf6c71a3771db720c199acaadc738c6feb40545dc8d6",
      "transactionIndex": "0x7f",
      "blockHash": "0x76e487ed3e89af1f62cfdac4263a366b4aa15c0c5d4920813408cdcd89ba9496",
      "blockNumber": "0x83149b",
      "gasUsed": "0xb77f",
      "effectiveGasPrice": "0x2b1250b",
      "from": "0x0bd7dd9a885d9526ff82813829ef5c7d8afdb8c4",
      "to": "0x60a15ca6b63508562d0cdc9cf896a9e3bbf79463",
      "contractAddress": null
    },
    {
      "status": "0x1",
      "cumulativeGasUsed": "0xda5807",
      "logs": [
        {
          "address": "0x779877a7b0d9e8603169ddbd7836e478b4624789",
          "topics": [
            "0x8c5be1e5ebec7d5bd14f71427d1e84f3dd0314c0f7b2291e5b200ac8c7c3b925",
            "0x0000000000000000000000000bd7dd9a885d9526ff82813829ef5c7d8afdb8c4",
            "0x0000000000000000000000000bf3de8c5d3e8a2b34d2beeb17abfcebaf363a59"
          ],
          "data": "0x000000000000000000000000000000000000000000000000003f448b072b9872",
          "blockHash": "0x76e487ed3e89af1f62cfdac4263a366b4aa15c0c5d4920813408cdcd89ba9496",
          "blockNumber": "0x83149b",
          "blockTimestamp": "0x68556aec",
          "transactionHash": "0xb99a03c4840bd8bb13715cd7f7f83632abdc4f35ae6ee57dcbc035087c46462f",
          "transactionIndex": "0x80",
          "logIndex": "0xbe",
          "removed": false
        }
      ],
      "logsBloom": "0x00000004000040000000000000000000000000000000000000000000000000000000000000000000000000000000000000000000000000000000000000200000000000000000000000000000000000000000000000000000000000000000000000000000000100000000000000000000000000000000000000000000000000000000000000000000000000000000800000400000000020000000000000000000020000000000080000000000000000000000000000000000000000000000000000000000000000000000000000000000000000000000000100000000000000000010000000000000000000000000000080000000000000000000000000000000",
      "type": "0x2",
      "transactionHash": "0xb99a03c4840bd8bb13715cd7f7f83632abdc4f35ae6ee57dcbc035087c46462f",
      "transactionIndex": "0x80",
      "blockHash": "0x76e487ed3e89af1f62cfdac4263a366b4aa15c0c5d4920813408cdcd89ba9496",
      "blockNumber": "0x83149b",
      "gasUsed": "0xb499",
      "effectiveGasPrice": "0x2b1250b",
      "from": "0x0bd7dd9a885d9526ff82813829ef5c7d8afdb8c4",
      "to": "0x779877a7b0d9e8603169ddbd7836e478b4624789",
      "contractAddress": null
    },
    {
      "status": "0x1",
      "cumulativeGasUsed": "0xdd3101",
      "logs": [
        {
          "address": "0x779877a7b0d9e8603169ddbd7836e478b4624789",
          "topics": [
            "0xddf252ad1be2c89b69c2b068fc378daa952ba7f163c4a11628f55a4df523b3ef",
            "0x0000000000000000000000000bd7dd9a885d9526ff82813829ef5c7d8afdb8c4",
            "0x00000000000000000000000012492154714fbd28f28219f6fc4315d19de1025b"
          ],
          "data": "0x000000000000000000000000000000000000000000000000003f448b072b9872",
          "blockHash": "0x76e487ed3e89af1f62cfdac4263a366b4aa15c0c5d4920813408cdcd89ba9496",
          "blockNumber": "0x83149b",
          "blockTimestamp": "0x68556aec",
          "transactionHash": "0x3d2f864e86b327ff268bcd17b90aabc230a4776424ed9c7d290dcfdf8805e5d7",
          "transactionIndex": "0x81",
          "logIndex": "0xbf",
          "removed": false
        },
        {
          "address": "0x779877a7b0d9e8603169ddbd7836e478b4624789",
          "topics": [
            "0x8c5be1e5ebec7d5bd14f71427d1e84f3dd0314c0f7b2291e5b200ac8c7c3b925",
            "0x0000000000000000000000000bd7dd9a885d9526ff82813829ef5c7d8afdb8c4",
            "0x0000000000000000000000000bf3de8c5d3e8a2b34d2beeb17abfcebaf363a59"
          ],
          "data": "0x0000000000000000000000000000000000000000000000000000000000000000",
          "blockHash": "0x76e487ed3e89af1f62cfdac4263a366b4aa15c0c5d4920813408cdcd89ba9496",
          "blockNumber": "0x83149b",
          "blockTimestamp": "0x68556aec",
          "transactionHash": "0x3d2f864e86b327ff268bcd17b90aabc230a4776424ed9c7d290dcfdf8805e5d7",
          "transactionIndex": "0x81",
          "logIndex": "0xc0",
          "removed": false
        },
        {
          "address": "0x60a15ca6b63508562d0cdc9cf896a9e3bbf79463",
          "topics": [
            "0xddf252ad1be2c89b69c2b068fc378daa952ba7f163c4a11628f55a4df523b3ef",
            "0x0000000000000000000000000bd7dd9a885d9526ff82813829ef5c7d8afdb8c4",
            "0x0000000000000000000000007c84f757f4db3a80be60b269e6b993740f24e5e9"
          ],
          "data": "0x0000000000000000000000000000000000000000000000000de0b6b3a7640000",
          "blockHash": "0x76e487ed3e89af1f62cfdac4263a366b4aa15c0c5d4920813408cdcd89ba9496",
          "blockNumber": "0x83149b",
          "blockTimestamp": "0x68556aec",
          "transactionHash": "0x3d2f864e86b327ff268bcd17b90aabc230a4776424ed9c7d290dcfdf8805e5d7",
          "transactionIndex": "0x81",
          "logIndex": "0xc1",
          "removed": false
        },
        {
          "address": "0x60a15ca6b63508562d0cdc9cf896a9e3bbf79463",
          "topics": [
            "0xddf252ad1be2c89b69c2b068fc378daa952ba7f163c4a11628f55a4df523b3ef",
            "0x0000000000000000000000007c84f757f4db3a80be60b269e6b993740f24e5e9",
            "0x0000000000000000000000000000000000000000000000000000000000000000"
          ],
          "data": "0x0000000000000000000000000000000000000000000000000de0b6b3a7640000",
          "blockHash": "0x76e487ed3e89af1f62cfdac4263a366b4aa15c0c5d4920813408cdcd89ba9496",
          "blockNumber": "0x83149b",
          "blockTimestamp": "0x68556aec",
          "transactionHash": "0x3d2f864e86b327ff268bcd17b90aabc230a4776424ed9c7d290dcfdf8805e5d7",
          "transactionIndex": "0x81",
          "logIndex": "0xc2",
          "removed": false
        },
        {
          "address": "0x7c84f757f4db3a80be60b269e6b993740f24e5e9",
          "topics": [
            "0x696de425f79f4a40bc6d2122ca50507f0efbeabbff86a84871b7196ab8ea8df7",
            "0x00000000000000000000000012492154714fbd28f28219f6fc4315d19de1025b"
          ],
          "data": "0x0000000000000000000000000000000000000000000000000de0b6b3a7640000",
          "blockHash": "0x76e487ed3e89af1f62cfdac4263a366b4aa15c0c5d4920813408cdcd89ba9496",
          "blockNumber": "0x83149b",
          "blockTimestamp": "0x68556aec",
          "transactionHash": "0x3d2f864e86b327ff268bcd17b90aabc230a4776424ed9c7d290dcfdf8805e5d7",
          "transactionIndex": "0x81",
          "logIndex": "0xc3",
          "removed": false
        },
        {
          "address": "0x12492154714fbd28f28219f6fc4315d19de1025b",
          "topics": [
            "0xd0c3c799bf9e2639de44391e7f524d229b2b55f5b1ea94b2bf7da42f7243dddd"
          ],
          "data": "0x0000000000000000000000000000000000000000000000000000000000000020000000000000000000000000000000000000000000000000de41ba4fc9d91ad90000000000000000000000000bd7dd9a885d9526ff82813829ef5c7d8afdb8c40000000000000000000000000bd7dd9a885d9526ff82813829ef5c7d8afdb8c40000000000000000000000000000000000000000000000000000000000002ebb000000000000000000000000000000000000000000000000000000000000000000000000000000000000000000000000000000000000000000000000000000000000000000000000000000000000000000000000000000000000000000000002000000000000000000000000779877a7b0d9e8603169ddbd7836e478b4624789000000000000000000000000000000000000000000000000003f448b072b987200000000000000000000000000000000000000000000000000000000000001a000000000000000000000000000000000000000000000000000000000000001c00000000000000000000000000000000000000000000000000000000000000220b516705d81c2c08c7a6bb2e565cec07985eeefcbfe339d718b3301b561fc885e0000000000000000000000000000000000000000000000000000000000000000000000000000000000000000000000000000000000000000000000000000000100000000000000000000000060a15ca6b63508562d0cdc9cf896a9e3bbf794630000000000000000000000000000000000000000000000000de0b6b3a76400000000000000000000000000000000000000000000000000000000000000000001000000000000000000000000000000000000000000000000000000000000002000000000000000000000000000000000000000000000000000000000000001600000000000000000000000000000000000000000000000000000000000000020000000000000000000000000000000000000000000000000000000000000008000000000000000000000000000000000000000000000000000000000000000c000000000000000000000000000000000000000000000000000000000000001000000000000000000000000000000000000000000000000000000000000015f9000000000000000000000000000000000000000000000000000000000000000200000000000000000000000007c84f757f4db3a80be60b269e6b993740f24e5e9000000000000000000000000000000000000000000000000000000000000002000000000000000000000000060a15ca6b63508562d0cdc9cf896a9e3bbf7946300000000000000000000000000000000000000000000000000000000000000200000000000000000000000000000000000000000000000000000000000000012",
          "blockHash": "0x76e487ed3e89af1f62cfdac4263a366b4aa15c0c5d4920813408cdcd89ba9496",
          "blockNumber": "0x83149b",
          "blockTimestamp": "0x68556aec",
          "transactionHash": "0x3d2f864e86b327ff268bcd17b90aabc230a4776424ed9c7d290dcfdf8805e5d7",
          "transactionIndex": "0x81",
          "logIndex": "0xc4",
          "removed": false
        }
      ],
      "logsBloom": "0x000000040000400000000000000000000004000000000000000000000000000000000000000008000020020000000008000000000000000000000000002000000000000000000000000000080040000000000000000800000000000001000000000000000601000200000004000008020000000000000000000000100000000000000000080000000100000000008000004000000000200000000000000000000200000000000804000000000000000000000000000000000001000000000000000000020000000000000000000000000000000000000001002000008000202000100000000000000000000000000000a4000000000000000000000000000000",
      "type": "0x2",
      "transactionHash": "0x3d2f864e86b327ff268bcd17b90aabc230a4776424ed9c7d290dcfdf8805e5d7",
      "transactionIndex": "0x81",
      "blockHash": "0x76e487ed3e89af1f62cfdac4263a366b4aa15c0c5d4920813408cdcd89ba9496",
      "blockNumber": "0x83149b",
      "gasUsed": "0x2d8fa",
      "effectiveGasPrice": "0x2b1250b",
      "from": "0x0bd7dd9a885d9526ff82813829ef5c7d8afdb8c4",
      "to": "0x0bf3de8c5d3e8a2b34d2beeb17abfcebaf363a59",
      "contractAddress": null
    }
  ],
  "libraries": [],
  "pending": [],
  "returns": {},
  "timestamp": 1750428397,
  "chain": 11155111,
  "commit": "a443f1a"
}