{
  "transactions": [
    {
      "hash": "0xf2cb7a6098092202985524761eb3140db2d88435991d2a5b117515964d80fd6d",
      "transactionType": "CALL",
      "contractName": null,
      "contractAddress": "0xa3e73b9e6261a950616881a8a084842efb9bdc49",
      "function": "authorizeCircle(address,bool)",
      "arguments": [
        "0x0bd7dd9A885d9526Ff82813829ef5c7D8AfdB8c4",
        "true"
      ],
      "transaction": {
        "from": "0x0bd7dd9a885d9526ff82813829ef5c7d8afdb8c4",
        "to": "0xa3e73b9e6261a950616881a8a084842efb9bdc49",
        "gas": "0x10a97",
        "value": "0x0",
        "input": "0x82370bf20000000000000000000000000bd7dd9a885d9526ff82813829ef5c7d8afdb8c40000000000000000000000000000000000000000000000000000000000000001",
        "nonce": "0x24",
        "chainId": "0xa869"
      },
      "additionalContracts": [],
      "isFixedGasLimit": false
    },
    {
      "hash": "0x1011328cc4e718d0ad932929d91663cbcbd6fc8d77f7cd1fcb372178a11ae211",
      "transactionType": "CALL",
      "contractName": null,
      "contractAddress": "0x60a15ca6b63508562d0cdc9cf896a9e3bbf79463",
      "function": "approve(address,uint256)",
      "arguments": [
        "0xa3e73B9E6261A950616881a8A084842efB9bdC49",
        "1000000000000000000"
      ],
      "transaction": {
        "from": "0x0bd7dd9a885d9526ff82813829ef5c7d8afdb8c4",
        "to": "0x60a15ca6b63508562d0cdc9cf896a9e3bbf79463",
        "gas": "0xfd73",
        "value": "0x0",
        "input": "0x095ea7b3000000000000000000000000a3e73b9e6261a950616881a8a084842efb9bdc490000000000000000000000000000000000000000000000000de0b6b3a7640000",
        "nonce": "0x25",
        "chainId": "0xa869"
      },
      "additionalContracts": [],
      "isFixedGasLimit": false
    },
    {
      "hash": "0xf8cc71c82648a08113d0a8377e9db562d05b95d15a1829d8edec98b3fd5c6aa8",
      "transactionType": "CALL",
      "contractName": null,
      "contractAddress": "0xa3e73b9e6261a950616881a8a084842efb9bdc49",
      "function": "deployFunds(uint256,uint64,address)",
      "arguments": [
        "1000000000000000000",
        "16015286601757825753",
        "0x0000000000000000000000000000000000000000"
      ],
      "transaction": {
        "from": "0x0bd7dd9a885d9526ff82813829ef5c7d8afdb8c4",
        "to": "0xa3e73b9e6261a950616881a8a084842efb9bdc49",
        "gas": "0x67e9d",
        "value": "0x0",
        "input": "0xdf4d6b0f0000000000000000000000000000000000000000000000000de0b6b3a7640000000000000000000000000000000000000000000000000000de41ba4fc9d91ad90000000000000000000000000000000000000000000000000000000000000000",
        "nonce": "0x26",
        "chainId": "0xa869"
      },
      "additionalContracts": [],
      "isFixedGasLimit": false
    }
  ],
  "receipts": [
    {
      "status": "0x1",
      "cumulativeGasUsed": "0x1378c8",
      "logs": [],
      "logsBloom": "0x00000000000000000000000000000000000000000000000000000000000000000000000000000000000000000000000000000000000000000000000000000000000000000000000000000000000000000000000000000000000000000000000000000000000000000000000000000000000000000000000000000000000000000000000000000000000000000000000000000000000000000000000000000000000000000000000000000000000000000000000000000000000000000000000000000000000000000000000000000000000000000000000000000000000000000000000000000000000000000000000000000000000000000000000000000000",
      "type": "0x2",
      "transactionHash": "0xf2cb7a6098092202985524761eb3140db2d88435991d2a5b117515964d80fd6d",
      "transactionIndex": "0x3",
      "blockHash": "0x0e9b355e7872c5b435dbe42c27354405a42cdf265b1c0382c932184d79391f6e",
      "blockNumber": "0x285344c",
      "gasUsed": "0xb649",
      "effectiveGasPrice": "0x2",
      "from": "0x0bd7dd9a885d9526ff82813829ef5c7d8afdb8c4",
      "to": "0xa3e73b9e6261a950616881a8a084842efb9bdc49",
      "contractAddress": null
    },
    {
      "status": "0x1",
      "cumulativeGasUsed": "0x143047",
      "logs": [
        {
          "address": "0x60a15ca6b63508562d0cdc9cf896a9e3bbf79463",
          "topics": [
            "0x8c5be1e5ebec7d5bd14f71427d1e84f3dd0314c0f7b2291e5b200ac8c7c3b925",
            "0x0000000000000000000000000bd7dd9a885d9526ff82813829ef5c7d8afdb8c4",
            "0x000000000000000000000000a3e73b9e6261a950616881a8a084842efb9bdc49"
          ],
          "data": "0x0000000000000000000000000000000000000000000000000de0b6b3a7640000",
          "blockHash": "0x0e9b355e7872c5b435dbe42c27354405a42cdf265b1c0382c932184d79391f6e",
          "blockNumber": "0x285344c",
          "transactionHash": "0x1011328cc4e718d0ad932929d91663cbcbd6fc8d77f7cd1fcb372178a11ae211",
          "transactionIndex": "0x4",
          "logIndex": "0x1a",
          "removed": false
        }
      ],
      "logsBloom": "0x000000000000000000000000000000000000000000000000000000000000000000000000000008000000000000000000000000000000000000000000002000000000000002000000000000000000000000000000000000000000000000000000000000000000000000000000000000000000000000000100000000000000000000000000000000000100000000000000004000000000200000000000000000000200000000000000000000000000000000000000000000000000000000000000000000000000000000000000000000000000080000000000000000000000000000100000000000000000000000000000a0000000000000000000000000000000",
      "type": "0x2",
      "transactionHash": "0x1011328cc4e718d0ad932929d91663cbcbd6fc8d77f7cd1fcb372178a11ae211",
      "transactionIndex": "0x4",
      "blockHash": "0x0e9b355e7872c5b435dbe42c27354405a42cdf265b1c0382c932184d79391f6e",
      "blockNumber": "0x285344c",
      "gasUsed": "0xb77f",
      "effectiveGasPrice": "0x2",
      "from": "0x0bd7dd9a885d9526ff82813829ef5c7d8afdb8c4",
      "to": "0x60a15ca6b63508562d0cdc9cf896a9e3bbf79463",
      "contractAddress": null
    },
    {
      "status": "0x1",
      "cumulativeGasUsed": "0x1a10e7",
      "logs": [
        {
          "address": "0x60a15ca6b63508562d0cdc9cf896a9e3bbf79463",
          "topics": [
            "0x8c5be1e5ebec7d5bd14f71427d1e84f3dd0314c0f7b2291e5b200ac8c7c3b925",
            "0x000000000000000000000000a3e73b9e6261a950616881a8a084842efb9bdc49",
            "0x000000000000000000000000a3e73b9e6261a950616881a8a084842efb9bdc49"
          ],
          "data": "0x0000000000000000000000000000000000000000000000000de0b6b3a7640000",
          "blockHash": "0x0e9b355e7872c5b435dbe42c27354405a42cdf265b1c0382c932184d79391f6e",
          "blockNumber": "0x285344c",
          "transactionHash": "0xf8cc71c82648a08113d0a8377e9db562d05b95d15a1829d8edec98b3fd5c6aa8",
          "transactionIndex": "0x5",
          "logIndex": "0x1b",
          "removed": false
        },
        {
          "address": "0x60a15ca6b63508562d0cdc9cf896a9e3bbf79463",
          "topics": [
            "0xddf252ad1be2c89b69c2b068fc378daa952ba7f163c4a11628f55a4df523b3ef",
            "0x0000000000000000000000000bd7dd9a885d9526ff82813829ef5c7d8afdb8c4",
            "0x000000000000000000000000a3e73b9e6261a950616881a8a084842efb9bdc49"
          ],
          "data": "0x0000000000000000000000000000000000000000000000000de0b6b3a7640000",
          "blockHash": "0x0e9b355e7872c5b435dbe42c27354405a42cdf265b1c0382c932184d79391f6e",
          "blockNumber": "0x285344c",
          "transactionHash": "0xf8cc71c82648a08113d0a8377e9db562d05b95d15a1829d8edec98b3fd5c6aa8",
          "transactionIndex": "0x5",
          "logIndex": "0x1c",
          "removed": false
        },
        {
          "address": "0x0b9d5d9136855f6fec3c0993fee6e9ce8a297846",
          "topics": [
            "0x8c5be1e5ebec7d5bd14f71427d1e84f3dd0314c0f7b2291e5b200ac8c7c3b925",
            "0x000000000000000000000000a3e73b9e6261a950616881a8a084842efb9bdc49",
            "0x000000000000000000000000f694e193200268f9a4868e4aa017a0118c9a8177"
          ],
          "data": "0x000000000000000000000000000000000000000000000000004746ec89ff0089",
          "blockHash": "0x0e9b355e7872c5b435dbe42c27354405a42cdf265b1c0382c932184d79391f6e",
          "blockNumber": "0x285344c",
          "transactionHash": "0xf8cc71c82648a08113d0a8377e9db562d05b95d15a1829d8edec98b3fd5c6aa8",
          "transactionIndex": "0x5",
          "logIndex": "0x1d",
          "removed": false
        },
        {
          "address": "0x60a15ca6b63508562d0cdc9cf896a9e3bbf79463",
          "topics": [
            "0x8c5be1e5ebec7d5bd14f71427d1e84f3dd0314c0f7b2291e5b200ac8c7c3b925",
            "0x000000000000000000000000a3e73b9e6261a950616881a8a084842efb9bdc49",
            "0x000000000000000000000000f694e193200268f9a4868e4aa017a0118c9a8177"
          ],
          "data": "0x0000000000000000000000000000000000000000000000000de0b6b3a7640000",
          "blockHash": "0x0e9b355e7872c5b435dbe42c27354405a42cdf265b1c0382c932184d79391f6e",
          "blockNumber": "0x285344c",
          "transactionHash": "0xf8cc71c82648a08113d0a8377e9db562d05b95d15a1829d8edec98b3fd5c6aa8",
          "transactionIndex": "0x5",
          "logIndex": "0x1e",
          "removed": false
        },
        {
          "address": "0x0b9d5d9136855f6fec3c0993fee6e9ce8a297846",
          "topics": [
            "0xddf252ad1be2c89b69c2b068fc378daa952ba7f163c4a11628f55a4df523b3ef",
            "0x000000000000000000000000a3e73b9e6261a950616881a8a084842efb9bdc49",
            "0x00000000000000000000000075b9a75ee1ffef6be7c4f842a041de7c6153cf4e"
          ],
          "data": "0x000000000000000000000000000000000000000000000000004746ec89ff0089",
          "blockHash": "0x0e9b355e7872c5b435dbe42c27354405a42cdf265b1c0382c932184d79391f6e",
          "blockNumber": "0x285344c",
          "transactionHash": "0xf8cc71c82648a08113d0a8377e9db562d05b95d15a1829d8edec98b3fd5c6aa8",
          "transactionIndex": "0x5",
          "logIndex": "0x1f",
          "removed": false
        },
        {
          "address": "0x60a15ca6b63508562d0cdc9cf896a9e3bbf79463",
          "topics": [
            "0xddf252ad1be2c89b69c2b068fc378daa952ba7f163c4a11628f55a4df523b3ef",
            "0x000000000000000000000000a3e73b9e6261a950616881a8a084842efb9bdc49",
            "0x0000000000000000000000002d9bf08c367fe7cf2d5d76e43fcfe46ce7660691"
          ],
          "data": "0x0000000000000000000000000000000000000000000000000de0b6b3a7640000",
          "blockHash": "0x0e9b355e7872c5b435dbe42c27354405a42cdf265b1c0382c932184d79391f6e",
          "blockNumber": "0x285344c",
          "transactionHash": "0xf8cc71c82648a08113d0a8377e9db562d05b95d15a1829d8edec98b3fd5c6aa8",
          "transactionIndex": "0x5",
          "logIndex": "0x20",
          "removed": false
        },
        {
          "address": "0x60a15ca6b63508562d0cdc9cf896a9e3bbf79463",
          "topics": [
            "0xddf252ad1be2c89b69c2b068fc378daa952ba7f163c4a11628f55a4df523b3ef",
            "0x0000000000000000000000002d9bf08c367fe7cf2d5d76e43fcfe46ce7660691",
            "0x0000000000000000000000000000000000000000000000000000000000000000"
          ],
          "data": "0x0000000000000000000000000000000000000000000000000de0b6b3a7640000",
          "blockHash": "0x0e9b355e7872c5b435dbe42c27354405a42cdf265b1c0382c932184d79391f6e",
          "blockNumber": "0x285344c",
          "transactionHash": "0xf8cc71c82648a08113d0a8377e9db562d05b95d15a1829d8edec98b3fd5c6aa8",
          "transactionIndex": "0x5",
          "logIndex": "0x21",
          "removed": false
        },
        {
          "address": "0x2d9bf08c367fe7cf2d5d76e43fcfe46ce7660691",
          "topics": [
            "0x696de425f79f4a40bc6d2122ca50507f0efbeabbff86a84871b7196ab8ea8df7",
            "0x00000000000000000000000075b9a75ee1ffef6be7c4f842a041de7c6153cf4e"
          ],
          "data": "0x0000000000000000000000000000000000000000000000000de0b6b3a7640000",
          "blockHash": "0x0e9b355e7872c5b435dbe42c27354405a42cdf265b1c0382c932184d79391f6e",
          "blockNumber": "0x285344c",
          "transactionHash": "0xf8cc71c82648a08113d0a8377e9db562d05b95d15a1829d8edec98b3fd5c6aa8",
          "transactionIndex": "0x5",
          "logIndex": "0x22",
          "removed": false
        },
        {
          "address": "0x75b9a75ee1ffef6be7c4f842a041de7c6153cf4e",
          "topics": [
            "0xd0c3c799bf9e2639de44391e7f524d229b2b55f5b1ea94b2bf7da42f7243dddd"
          ],
          "data": "0x0000000000000000000000000000000000000000000000000000000000000020000000000000000000000000000000000000000000000000ccf0a31a221f3c9b000000000000000000000000a3e73b9e6261a950616881a8a084842efb9bdc4900000000000000000000000035b8c50ae752414c0e1ff49ed774763124e4bff2000000000000000000000000000000000000000000000000000000000000121800000000000000000000000000000000000000000000000000000000002625a0000000000000000000000000000000000000000000000000000000000000000000000000000000000000000000000000000000000000000000000000000000000000000000000000000000000b9d5d9136855f6fec3c0993fee6e9ce8a297846000000000000000000000000000000000000000000000000004746ec89ff008900000000000000000000000000000000000000000000000000000000000001a0000000000000000000000000000000000000000000000000000000000000028000000000000000000000000000000000000000000000000000000000000002e04d3992fa98b39b4aab4a002099c535848a8f2e0e004e346e6bd64a45d9b6332800000000000000000000000000000000000000000000000000000000000000c000000000000000000000000000000000000000000000000000000000000000800000000000000000000000000000000000000000000000000de0b6b3a764000000000000000000000000000060a15ca6b63508562d0cdc9cf896a9e3bbf794630000000000000000000000000000000000000000000000000000000000000000000000000000000000000000000000000000000000000000000000000000000c4445504c4f595f46554e44530000000000000000000000000000000000000000000000000000000000000000000000000000000000000000000000000000000100000000000000000000000060a15ca6b63508562d0cdc9cf896a9e3bbf794630000000000000000000000000000000000000000000000000de0b6b3a76400000000000000000000000000000000000000000000000000000000000000000001000000000000000000000000000000000000000000000000000000000000002000000000000000000000000000000000000000000000000000000000000001600000000000000000000000000000000000000000000000000000000000000020000000000000000000000000000000000000000000000000000000000000008000000000000000000000000000000000000000000000000000000000000000c000000000000000000000000000000000000000000000000000000000000001000000000000000000000000000000000000000000000000000000000000015f9000000000000000000000000000000000000000000000000000000000000000200000000000000000000000002d9bf08c367fe7cf2d5d76e43fcfe46ce7660691000000000000000000000000000000000000000000000000000000000000002000000000000000000000000060a15ca6b63508562d0cdc9cf896a9e3bbf7946300000000000000000000000000000000000000000000000000000000000000200000000000000000000000000000000000000000000000000000000000000012",
          "blockHash": "0x0e9b355e7872c5b435dbe42c27354405a42cdf265b1c0382c932184d79391f6e",
          "blockNumber": "0x285344c",
          "transactionHash": "0xf8cc71c82648a08113d0a8377e9db562d05b95d15a1829d8edec98b3fd5c6aa8",
          "transactionIndex": "0x5",
          "logIndex": "0x23",
          "removed": false
        },
        {
          "address": "0xa3e73b9e6261a950616881a8a084842efb9bdc49",
          "topics": [
            "0x091ab715760899af2cbb5ec99e800a213e48b0754ed63681b178aab4c84ccebd",
            "0x4d3992fa98b39b4aab4a002099c535848a8f2e0e004e346e6bd64a45d9b63328",
            "0x000000000000000000000000000000000000000000000000de41ba4fc9d91ad9"
          ],
          "data": "0x00000000000000000000000035b8c50ae752414c0e1ff49ed774763124e4bff20000000000000000000000000000000000000000000000000de0b6b3a7640000000000000000000000000000000000000000000000000000004746ec89ff0089",
          "blockHash": "0x0e9b355e7872c5b435dbe42c27354405a42cdf265b1c0382c932184d79391f6e",
          "blockNumber": "0x285344c",
          "transactionHash": "0xf8cc71c82648a08113d0a8377e9db562d05b95d15a1829d8edec98b3fd5c6aa8",
          "transactionIndex": "0x5",
          "logIndex": "0x24",
          "removed": false
        }
      ],
      "logsBloom": "0x010000000000000000010000000000000000000000000400000000000000000000000000000048000020000000000000000000000000000000000020002000000000000002000000000100080000000000000800000000000000000000000000000000000600000000000000000108020000000000080100008000100000000000080000000100000100000008000000004000200000201000000000000000000200000000000006000000010000000000800000000008000001001000000000000000020002000000000088000000000000080000400008000000000040200000100000000000000200000000000000a4000200000000000000000100008000",
      "type": "0x2",
      "transactionHash": "0xf8cc71c82648a08113d0a8377e9db562d05b95d15a1829d8edec98b3fd5c6aa8",
      "transactionIndex": "0x5",
      "blockHash": "0x0e9b355e7872c5b435dbe42c27354405a42cdf265b1c0382c932184d79391f6e",
      "blockNumber": "0x285344c",
      "gasUsed": "0x5e0a0",
      "effectiveGasPrice": "0x2",
      "from": "0x0bd7dd9a885d9526ff82813829ef5c7d8afdb8c4",
      "to": "0xa3e73b9e6261a950616881a8a084842efb9bdc49",
      "contractAddress": null
    }
  ],
  "libraries": [],
  "pending": [],
  "returns": {},
  "timestamp": 1750600586,
  "chain": 43113,
  "commit": "0a309be"
}