{
  "transactions": [
    {
      "hash": "0xc64f09ae999d071b6b8b69bb69e1de5ec22c3b5b933af799a2b1efb8df6e9a80",
      "transactionType": "CALL",
      "contractName": null,
      "contractAddress": "0x7c84f757f4db3a80be60b269e6b993740f24e5e9",
      "function": "applyChainUpdates(uint64[],(uint64,bytes[],bytes,(bool,uint128,uint128),(bool,uint128,uint128))[])",
      "arguments": [
        "[]",
        "[(14767482510784806043, [0x0000000000000000000000002d9bf08c367fe7cf2d5d76e43fcfe46ce7660691], 0x00000000000000000000000060a15ca6b63508562d0cdc9cf896a9e3bbf79463, (false, 0, 0), (false, 0, 0))]"
      ],
      "transaction": {
        "from": "0x0bd7dd9a885d9526ff82813829ef5c7d8afdb8c4",
        "to": "0x7c84f757f4db3a80be60b269e6b993740f24e5e9",
        "gas": "0x6a3e8",
        "value": "0x0",
        "input": "0xe8a1da1700000000000000000000000000000000000000000000000000000000000000400000000000000000000000000000000000000000000000000000000000000060000000000000000000000000000000000000000000000000000000000000000000000000000000000000000000000000000000000000000000000000000000010000000000000000000000000000000000000000000000000000000000000020000000000000000000000000000000000000000000000000ccf0a31a221f3c9b000000000000000000000000000000000000000000000000000000000000012000000000000000000000000000000000000000000000000000000000000001a00000000000000000000000000000000000000000000000000000000000000000000000000000000000000000000000000000000000000000000000000000000000000000000000000000000000000000000000000000000000000000000000000000000000000000000000000000000000000000000000000000000000000000000000000000000000000000000000000000000000000000000000000000000000000000000000000000000000000000000000000000000000000000000000000000000000000000000000000000000000000000000000000000000000000001000000000000000000000000000000000000000000000000000000000000002000000000000000000000000000000000000000000000000000000000000000200000000000000000000000002d9bf08c367fe7cf2d5d76e43fcfe46ce7660691000000000000000000000000000000000000000000000000000000000000002000000000000000000000000060a15ca6b63508562d0cdc9cf896a9e3bbf79463",
        "nonce": "0xc",
        "chainId": "0xaa36a7"
      },
      "additionalContracts": [],
      "isFixedGasLimit": false
    }
  ],
  "receipts": [
    {
      "status": "0x1",
      "cumulativeGasUsed": "0x14445ec",
      "logs": [
        {
          "address": "0x7c84f757f4db3a80be60b269e6b993740f24e5e9",
          "topics": [
            "0x7d628c9a1796743d365ab521a8b2a4686e419b3269919dc9145ea2ce853b54ea",
            "0x000000000000000000000000000000000000000000000000ccf0a31a221f3c9b"
          ],
          "data": "0x000000000000000000000000000000000000000000000000000000000000002000000000000000000000000000000000000000000000000000000000000000200000000000000000000000002d9bf08c367fe7cf2d5d76e43fcfe46ce7660691",
          "blockHash": "0x173af1330320c76640215f0c9c197ecd354c8f3cce5ccdfcfaf660356668387a",
          "blockNumber": "0x83139f",
          "blockTimestamp": "0x68555f1c",
          "transactionHash": "0xc64f09ae999d071b6b8b69bb69e1de5ec22c3b5b933af799a2b1efb8df6e9a80",
          "transactionIndex": "0x8c",
          "logIndex": "0xe1",
          "removed": false
        },
        {
          "address": "0x7c84f757f4db3a80be60b269e6b993740f24e5e9",
          "topics": [
            "0x8d340f17e19058004c20453540862a9c62778504476f6756755cb33bcd6c38c2"
          ],
          "data": "0x000000000000000000000000000000000000000000000000ccf0a31a221f3c9b0000000000000000000000000000000000000000000000000000000000000100000000000000000000000000000000000000000000000000000000000000000000000000000000000000000000000000000000000000000000000000000000000000000000000000000000000000000000000000000000000000000000000000000000000000000000000000000000000000000000000000000000000000000000000000000000000000000000000000000000000000000000000000000000000000000000000000000000000000000000000000000000000000000000000000000000000000000000000000000000000000000000000000000000000000002000000000000000000000000060a15ca6b63508562d0cdc9cf896a9e3bbf79463",
          "blockHash": "0x173af1330320c76640215f0c9c197ecd354c8f3cce5ccdfcfaf660356668387a",
          "blockNumber": "0x83139f",
          "blockTimestamp": "0x68555f1c",
          "transactionHash": "0xc64f09ae999d071b6b8b69bb69e1de5ec22c3b5b933af799a2b1efb8df6e9a80",
          "transactionIndex": "0x8c",
          "logIndex": "0xe2",
          "removed": false
        }
      ],
      "logsBloom": "0x00000000000000400000000000000000000000000000000000000000000000000000000000000000000000000000000000000000000000000004000000000004000000000400000000000000004000000000000000080000000000000000000000000000000000020000000000000000000000000000000000000000000000400000000000000000000000000000000000000000000000000000000000000000000000000000000000000000000000000000000000000000000000000000000000000000000000000000000000000000000000000000000000000800000000000000000000000000000000000000002000000000008000000100000000000000",
      "type": "0x2",
      "transactionHash": "0xc64f09ae999d071b6b8b69bb69e1de5ec22c3b5b933af799a2b1efb8df6e9a80",
      "transactionIndex": "0x8c",
      "blockHash": "0x173af1330320c76640215f0c9c197ecd354c8f3cce5ccdfcfaf660356668387a",
      "blockNumber": "0x83139f",
      "gasUsed": "0x4ceb4",
      "effectiveGasPrice": "0x144a932",
      "from": "0x0bd7dd9a885d9526ff82813829ef5c7d8afdb8c4",
      "to": "0x7c84f757f4db3a80be60b269e6b993740f24e5e9",
      "contractAddress": null
    }
  ],
  "libraries": [],
  "pending": [],
  "returns": {},
  "timestamp": 1750425373,
  "chain": 11155111,
  "commit": "a443f1a"
}