{
  "transactions": [
    {
      "hash": "0x2dd274865fd5fa89ab36d985604e433dce4243fb3cb7cabc61c833e9e795a43d",
      "transactionType": "CALL",
      "contractName": null,
      "contractAddress": "0x95f29fee11c5c55d26cccf1db6772de953b37b82",
      "function": "setPool(address,address)",
      "arguments": [
        "0x60A15CA6b63508562d0Cdc9Cf896A9e3bBF79463",
        "0x7c84f757F4DB3a80be60B269e6B993740F24E5e9"
      ],
      "transaction": {
        "from": "0x0bd7dd9a885d9526ff82813829ef5c7d8afdb8c4",
        "to": "0x95f29fee11c5c55d26cccf1db6772de953b37b82",
        "gas": "0x12aae",
        "value": "0x0",
        "input": "0x4e847fc700000000000000000000000060a15ca6b63508562d0cdc9cf896a9e3bbf794630000000000000000000000007c84f757f4db3a80be60b269e6b993740f24e5e9",
        "nonce": "0xb",
        "chainId": "0xaa36a7"
      },
      "additionalContracts": [],
      "isFixedGasLimit": false
    }
  ],
  "receipts": [
    {
      "status": "0x1",
      "cumulativeGasUsed": "0x15512e1",
      "logs": [
        {
          "address": "0x95f29fee11c5c55d26cccf1db6772de953b37b82",
          "topics": [
            "0x754449ec3aff3bd528bfce43ae9319c4a381b67fcd1d20097b3b24dacaecc35d",
            "0x00000000000000000000000060a15ca6b63508562d0cdc9cf896a9e3bbf79463",
            "0x0000000000000000000000000000000000000000000000000000000000000000",
            "0x0000000000000000000000007c84f757f4db3a80be60b269e6b993740f24e5e9"
          ],
          "data": "0x",
          "blockHash": "0x822190f9785ff8be3c87c6f599ff7330755331684a89098a5e7676ff57682e2a",
          "blockNumber": "0x83137f",
          "blockTimestamp": "0x68555d9c",
          "transactionHash": "0x2dd274865fd5fa89ab36d985604e433dce4243fb3cb7cabc61c833e9e795a43d",
          "transactionIndex": "0x95",
          "logIndex": "0x11b",
          "removed": false
        }
      ],
      "logsBloom": "0x00000000000400000000000000000000000000000000000000000000000000000000000000000000000002000000000000000000000000000000000000000000000000000000000000000000000000000000000001000000000000000000000000000000020000000000000000000800000000000000000000000000000000000000000000000000000000000000000000000000000000000000000000000000000000000000000000000000000000000000000000000008000000000000000000000000000000000000000000010000000000000000000000200000800020000000000000000000000001000000000000000000000000100000020001000020",
      "type": "0x2",
      "transactionHash": "0x2dd274865fd5fa89ab36d985604e433dce4243fb3cb7cabc61c833e9e795a43d",
      "transactionIndex": "0x95",
      "blockHash": "0x822190f9785ff8be3c87c6f599ff7330755331684a89098a5e7676ff57682e2a",
      "blockNumber": "0x83137f",
      "gasUsed": "0xcc3a",
      "effectiveGasPrice": "0x1cb08aa",
      "from": "0x0bd7dd9a885d9526ff82813829ef5c7d8afdb8c4",
      "to": "0x95f29fee11c5c55d26cccf1db6772de953b37b82",
      "contractAddress": null
    }
  ],
  "libraries": [],
  "pending": [],
  "returns": {},
  "timestamp": 1750424989,
  "chain": 11155111,
  "commit": "a443f1a"
}