{
  "transactions": [
    {
      "hash": "0x8b0546433b0a0dac17ee3cf704918cf4b5b3aa75b7dc817b758b88f5978ddb41",
      "transactionType": "CALL",
      "contractName": null,
      "contractAddress": "0xa3e73b9e6261a950616881a8a084842efb9bdc49",
      "function": "requestWithdrawal(uint64,uint256,address)",
      "arguments": [
        "16015286601757825753",
        "500000000000000000",
        "0x0bd7dd9A885d9526Ff82813829ef5c7D8AfdB8c4"
      ],
      "transaction": {
        "from": "0x0bd7dd9a885d9526ff82813829ef5c7d8afdb8c4",
        "to": "0xa3e73b9e6261a950616881a8a084842efb9bdc49",
        "gas": "0x556fd",
        "value": "0x0",
        "input": "0x0c0be047000000000000000000000000000000000000000000000000de41ba4fc9d91ad900000000000000000000000000000000000000000000000006f05b59d3b200000000000000000000000000000bd7dd9a885d9526ff82813829ef5c7d8afdb8c4",
        "nonce": "0x29",
        "chainId": "0xa869"
      },
      "additionalContracts": [],
      "isFixedGasLimit": false
    }
  ],
  "receipts": [
    {
      "status": "0x1",
      "cumulativeGasUsed": "0x1c50ae",
      "logs": [
        {
          "address": "0x0b9d5d9136855f6fec3c0993fee6e9ce8a297846",
          "topics": [
            "0x8c5be1e5ebec7d5bd14f71427d1e84f3dd0314c0f7b2291e5b200ac8c7c3b925",
            "0x000000000000000000000000a3e73b9e6261a950616881a8a084842efb9bdc49",
            "0x000000000000000000000000f694e193200268f9a4868e4aa017a0118c9a8177"
          ],
          "data": "0x00000000000000000000000000000000000000000000000000470385d9feb74d",
          "blockHash": "0x2fd4596fd5af344d44b8f7b6b706d8ae627292d8d5b6349dbdc6ee52225f478b",
          "blockNumber": "0x28536c3",
          "transactionHash": "0x8b0546433b0a0dac17ee3cf704918cf4b5b3aa75b7dc817b758b88f5978ddb41",
          "transactionIndex": "0xb",
          "logIndex": "0x12",
          "removed": false
        },
        {
          "address": "0x60a15ca6b63508562d0cdc9cf896a9e3bbf79463",
          "topics": [
            "0x8c5be1e5ebec7d5bd14f71427d1e84f3dd0314c0f7b2291e5b200ac8c7c3b925",
            "0x000000000000000000000000a3e73b9e6261a950616881a8a084842efb9bdc49",
            "0x000000000000000000000000f694e193200268f9a4868e4aa017a0118c9a8177"
          ],
          "data": "0x0000000000000000000000000000000000000000000000000000000000000001",
          "blockHash": "0x2fd4596fd5af344d44b8f7b6b706d8ae627292d8d5b6349dbdc6ee52225f478b",
          "blockNumber": "0x28536c3",
          "transactionHash": "0x8b0546433b0a0dac17ee3cf704918cf4b5b3aa75b7dc817b758b88f5978ddb41",
          "transactionIndex": "0xb",
          "logIndex": "0x13",
          "removed": false
        },
        {
          "address": "0x0b9d5d9136855f6fec3c0993fee6e9ce8a297846",
          "topics": [
            "0xddf252ad1be2c89b69c2b068fc378daa952ba7f163c4a11628f55a4df523b3ef",
            "0x000000000000000000000000a3e73b9e6261a950616881a8a084842efb9bdc49",
            "0x00000000000000000000000075b9a75ee1ffef6be7c4f842a041de7c6153cf4e"
          ],
          "data": "0x00000000000000000000000000000000000000000000000000470385d9feb74d",
          "blockHash": "0x2fd4596fd5af344d44b8f7b6b706d8ae627292d8d5b6349dbdc6ee52225f478b",
          "blockNumber": "0x28536c3",
          "transactionHash": "0x8b0546433b0a0dac17ee3cf704918cf4b5b3aa75b7dc817b758b88f5978ddb41",
          "transactionIndex": "0xb",
          "logIndex": "0x14",
          "removed": false
        },
        {
          "address": "0x60a15ca6b63508562d0cdc9cf896a9e3bbf79463",
          "topics": [
            "0xddf252ad1be2c89b69c2b068fc378daa952ba7f163c4a11628f55a4df523b3ef",
            "0x000000000000000000000000a3e73b9e6261a950616881a8a084842efb9bdc49",
            "0x0000000000000000000000002d9bf08c367fe7cf2d5d76e43fcfe46ce7660691"
          ],
          "data": "0x0000000000000000000000000000000000000000000000000000000000000001",
          "blockHash": "0x2fd4596fd5af344d44b8f7b6b706d8ae627292d8d5b6349dbdc6ee52225f478b",
          "blockNumber": "0x28536c3",
          "transactionHash": "0x8b0546433b0a0dac17ee3cf704918cf4b5b3aa75b7dc817b758b88f5978ddb41",
          "transactionIndex": "0xb",
          "logIndex": "0x15",
          "removed": false
        },
        {
          "address": "0x60a15ca6b63508562d0cdc9cf896a9e3bbf79463",
          "topics": [
            "0xddf252ad1be2c89b69c2b068fc378daa952ba7f163c4a11628f55a4df523b3ef",
            "0x0000000000000000000000002d9bf08c367fe7cf2d5d76e43fcfe46ce7660691",
            "0x0000000000000000000000000000000000000000000000000000000000000000"
          ],
          "data": "0x0000000000000000000000000000000000000000000000000000000000000001",
          "blockHash": "0x2fd4596fd5af344d44b8f7b6b706d8ae627292d8d5b6349dbdc6ee52225f478b",
          "blockNumber": "0x28536c3",
          "transactionHash": "0x8b0546433b0a0dac17ee3cf704918cf4b5b3aa75b7dc817b758b88f5978ddb41",
          "transactionIndex": "0xb",
          "logIndex": "0x16",
          "removed": false
        },
        {
          "address": "0x2d9bf08c367fe7cf2d5d76e43fcfe46ce7660691",
          "topics": [
            "0x696de425f79f4a40bc6d2122ca50507f0efbeabbff86a84871b7196ab8ea8df7",
            "0x00000000000000000000000075b9a75ee1ffef6be7c4f842a041de7c6153cf4e"
          ],
          "data": "0x0000000000000000000000000000000000000000000000000000000000000001",
          "blockHash": "0x2fd4596fd5af344d44b8f7b6b706d8ae627292d8d5b6349dbdc6ee52225f478b",
          "blockNumber": "0x28536c3",
          "transactionHash": "0x8b0546433b0a0dac17ee3cf704918cf4b5b3aa75b7dc817b758b88f5978ddb41",
          "transactionIndex": "0xb",
          "logIndex": "0x17",
          "removed": false
        },
        {
          "address": "0x75b9a75ee1ffef6be7c4f842a041de7c6153cf4e",
          "topics": [
            "0xd0c3c799bf9e2639de44391e7f524d229b2b55f5b1ea94b2bf7da42f7243dddd"
          ],
          "data": "0x0000000000000000000000000000000000000000000000000000000000000020000000000000000000000000000000000000000000000000ccf0a31a221f3c9b000000000000000000000000a3e73b9e6261a950616881a8a084842efb9bdc4900000000000000000000000035b8c50ae752414c0e1ff49ed774763124e4bff2000000000000000000000000000000000000000000000000000000000000121a00000000000000000000000000000000000000000000000000000000002625a0000000000000000000000000000000000000000000000000000000000000000000000000000000000000000000000000000000000000000000000000000000000000000000000000000000000b9d5d9136855f6fec3c0993fee6e9ce8a29784600000000000000000000000000000000000000000000000000470385d9feb74d00000000000000000000000000000000000000000000000000000000000001a0000000000000000000000000000000000000000000000000000000000000028000000000000000000000000000000000000000000000000000000000000002e00ae19c349e7a77a47ebd35065b316bec133f9a72dee320411865cc3ac3b4b4a600000000000000000000000000000000000000000000000000000000000000c0000000000000000000000000000000000000000000000000000000000000008000000000000000000000000000000000000000000000000006f05b59d3b2000000000000000000000000000060a15ca6b63508562d0cdc9cf896a9e3bbf794630000000000000000000000000bd7dd9a885d9526ff82813829ef5c7d8afdb8c4000000000000000000000000000000000000000000000000000000000000000e57495448445241575f46554e4453000000000000000000000000000000000000000000000000000000000000000000000000000000000000000000000000000100000000000000000000000060a15ca6b63508562d0cdc9cf896a9e3bbf7946300000000000000000000000000000000000000000000000000000000000000010000000000000000000000000000000000000000000000000000000000000001000000000000000000000000000000000000000000000000000000000000002000000000000000000000000000000000000000000000000000000000000001600000000000000000000000000000000000000000000000000000000000000020000000000000000000000000000000000000000000000000000000000000008000000000000000000000000000000000000000000000000000000000000000c000000000000000000000000000000000000000000000000000000000000001000000000000000000000000000000000000000000000000000000000000015f9000000000000000000000000000000000000000000000000000000000000000200000000000000000000000002d9bf08c367fe7cf2d5d76e43fcfe46ce7660691000000000000000000000000000000000000000000000000000000000000002000000000000000000000000060a15ca6b63508562d0cdc9cf896a9e3bbf7946300000000000000000000000000000000000000000000000000000000000000200000000000000000000000000000000000000000000000000000000000000012",
          "blockHash": "0x2fd4596fd5af344d44b8f7b6b706d8ae627292d8d5b6349dbdc6ee52225f478b",
          "blockNumber": "0x28536c3",
          "transactionHash": "0x8b0546433b0a0dac17ee3cf704918cf4b5b3aa75b7dc817b758b88f5978ddb41",
          "transactionIndex": "0xb",
          "logIndex": "0x18",
          "removed": false
        }
      ],
      "logsBloom": "0x01000000000000000001000000000000000000000000040000000000000000000000000000000800002000000000000000000000000000000000002000200000000000000200000000000008000000000000000000000000000000000000000000000000060000000000000000000802000000000008010000000010000000000008000000000000010000000000000000000000000000000000000000000000020000000000000600000001000000000080000000000800000100100000000000000002000200000000008800000000000008000040000800000000000020000010000000000000000000000000000024000200000000000000000100000000",
      "type": "0x2",
      "transactionHash": "0x8b0546433b0a0dac17ee3cf704918cf4b5b3aa75b7dc817b758b88f5978ddb41",
      "transactionIndex": "0xb",
      "blockHash": "0x2fd4596fd5af344d44b8f7b6b706d8ae627292d8d5b6349dbdc6ee52225f478b",
      "blockNumber": "0x28536c3",
      "gasUsed": "0x48fe6",
      "effectiveGasPrice": "0x2",
      "from": "0x0bd7dd9a885d9526ff82813829ef5c7d8afdb8c4",
      "to": "0xa3e73b9e6261a950616881a8a084842efb9bdc49",
      "contractAddress": null
    }
  ],
  "libraries": [],
  "pending": [],
  "returns": {},
  "timestamp": 1750601576,
  "chain": 43113,
  "commit": "0a309be"
}