{
  "transactions": [
    {
      "hash": "0x31fb1c6d78a2a483350a6d22c90e9b9cea33c2b8b32afe89d3bad1ddec3ff4b7",
      "transactionType": "CALL",
      "contractName": null,
      "contractAddress": "0x97300785af1ede1343db6d90706a35cf14aa3d81",
      "function": "registerAdminViaGetCCIPAdmin(address)",
      "arguments": [
        "0x60A15CA6b63508562d0Cdc9Cf896A9e3bBF79463"
      ],
      "transaction": {
        "from": "0x0bd7dd9a885d9526ff82813829ef5c7d8afdb8c4",
        "to": "0x97300785af1ede1343db6d90706a35cf14aa3d81",
        "gas": "0x253de",
        "value": "0x0",
        "input": "0xff12c35400000000000000000000000060a15ca6b63508562d0cdc9cf896a9e3bbf79463",
        "nonce": "0x6",
        "chainId": "0xa869"
      },
      "additionalContracts": [],
      "isFixedGasLimit": false
    },
    {
      "hash": "0x3ddf8bcfc3d3694549368afedb595deeac4d2163e4eef79f8079eeeb438585cb",
      "transactionType": "CALL",
      "contractName": null,
      "contractAddress": "0xa92053a4a3922084d992fd2835bdba4cac6877e6",
      "function": "acceptAdminRole(address)",
      "arguments": [
        "0x60A15CA6b63508562d0Cdc9Cf896A9e3bBF79463"
      ],
      "transaction": {
        "from": "0x0bd7dd9a885d9526ff82813829ef5c7d8afdb8c4",
        "to": "0xa92053a4a3922084d992fd2835bdba4cac6877e6",
        "gas": "0x10611",
        "value": "0x0",
        "input": "0x156194da00000000000000000000000060a15ca6b63508562d0cdc9cf896a9e3bbf79463",
        "nonce": "0x7",
        "chainId": "0xa869"
      },
      "additionalContracts": [],
      "isFixedGasLimit": false
    }
  ],
  "receipts": [
    {
      "status": "0x1",
      "cumulativeGasUsed": "0x28b32",
      "logs": [
        {
          "address": "0xa92053a4a3922084d992fd2835bdba4cac6877e6",
          "topics": [
            "0xc54c3051ff16e63bb9203214432372aca006c589e3653619b577a3265675b716",
            "0x00000000000000000000000060a15ca6b63508562d0cdc9cf896a9e3bbf79463",
            "0x0000000000000000000000000000000000000000000000000000000000000000",
            "0x0000000000000000000000000bd7dd9a885d9526ff82813829ef5c7d8afdb8c4"
          ],
          "data": "0x",
          "blockHash": "0xc659e3c6ab8f70ed7569e5e35fd8d77bbfc49ace08132f5a421006837dfd90a7",
          "blockNumber": "0x28395ee",
          "transactionHash": "0x31fb1c6d78a2a483350a6d22c90e9b9cea33c2b8b32afe89d3bad1ddec3ff4b7",
          "transactionIndex": "0x1",
          "logIndex": "0x2",
          "removed": false
        },
        {
          "address": "0x97300785af1ede1343db6d90706a35cf14aa3d81",
          "topics": [
            "0x09590fb70af4b833346363965e043a9339e8c7d378b8a2b903c75c277faec4f9",
            "0x00000000000000000000000060a15ca6b63508562d0cdc9cf896a9e3bbf79463",
            "0x0000000000000000000000000bd7dd9a885d9526ff82813829ef5c7d8afdb8c4"
          ],
          "data": "0x",
          "blockHash": "0xc659e3c6ab8f70ed7569e5e35fd8d77bbfc49ace08132f5a421006837dfd90a7",
          "blockNumber": "0x28395ee",
          "transactionHash": "0x31fb1c6d78a2a483350a6d22c90e9b9cea33c2b8b32afe89d3bad1ddec3ff4b7",
          "transactionIndex": "0x1",
          "logIndex": "0x3",
          "removed": false
        }
      ],
      "logsBloom": "0x00000000000000000000000000000000000000000000000000000000020000000000000000000000000000000000000000000000000000000000000400000000000000002040000000000050000000000000000000000000000000000000000000000000020000000000000000000800000000000000000000000000000000000000000000000000000000000100000004400000000020000000000000000000000000000000000000000000000000000000000000000000000000000000000000000000400000000000000000010000000000000000000000000000000120000000000000000000000000000800000080000000000000100800000000000020",
      "type": "0x2",
      "transactionHash": "0x31fb1c6d78a2a483350a6d22c90e9b9cea33c2b8b32afe89d3bad1ddec3ff4b7",
      "transactionIndex": "0x1",
      "blockHash": "0xc659e3c6ab8f70ed7569e5e35fd8d77bbfc49ace08132f5a421006837dfd90a7",
      "blockNumber": "0x28395ee",
      "gasUsed": "0x1af66",
      "effectiveGasPrice": "0x2",
      "from": "0x0bd7dd9a885d9526ff82813829ef5c7d8afdb8c4",
      "to": "0x97300785af1ede1343db6d90706a35cf14aa3d81",
      "contractAddress": null
    },
    {
      "status": "0x1",
      "cumulativeGasUsed": "0x35123",
      "logs": [
        {
          "address": "0xa92053a4a3922084d992fd2835bdba4cac6877e6",
          "topics": [
            "0x399b55200f7f639a63d76efe3dcfa9156ce367058d6b673041b84a628885f5a7",
            "0x00000000000000000000000060a15ca6b63508562d0cdc9cf896a9e3bbf79463",
            "0x0000000000000000000000000bd7dd9a885d9526ff82813829ef5c7d8afdb8c4"
          ],
          "data": "0x",
          "blockHash": "0xc659e3c6ab8f70ed7569e5e35fd8d77bbfc49ace08132f5a421006837dfd90a7",
          "blockNumber": "0x28395ee",
          "transactionHash": "0x3ddf8bcfc3d3694549368afedb595deeac4d2163e4eef79f8079eeeb438585cb",
          "transactionIndex": "0x2",
          "logIndex": "0x4",
          "removed": false
        }
      ],
      "logsBloom": "0x00000000000000000000000000000000000000000000001000000000020000000000000000000000000000000000000000000000000000000000000000000000000000000000000000000000000000000000000000000000000000000000000000000000000000000000000000000000000000000000000000000000000000000000000000000000000000000100000004400000000020000000000000000000000000000000000000000000000000000000000000000000000000000000000000000000000004000000000000010000000000000000000000000000000000000000000000000000000000000000000080000000000400100000000000000020",
      "type": "0x2",
      "transactionHash": "0x3ddf8bcfc3d3694549368afedb595deeac4d2163e4eef79f8079eeeb438585cb",
      "transactionIndex": "0x2",
      "blockHash": "0xc659e3c6ab8f70ed7569e5e35fd8d77bbfc49ace08132f5a421006837dfd90a7",
      "blockNumber": "0x28395ee",
      "gasUsed": "0xc5f1",
      "effectiveGasPrice": "0x2",
      "from": "0x0bd7dd9a885d9526ff82813829ef5c7d8afdb8c4",
      "to": "0xa92053a4a3922084d992fd2835bdba4cac6877e6",
      "contractAddress": null
    }
  ],
  "libraries": [],
  "pending": [],
  "returns": {},
  "timestamp": 1750424190,
  "chain": 43113,
  "commit": "a443f1a"
}