{
  "transactions": [
    {
      "hash": "0x0fc48873f32fe1f9668524dfc21e50a1b311f02055b3b24896f02738393b78b7",
      "transactionType": "CALL",
      "contractName": null,
      "contractAddress": "0x4385cca9d33ea995fd1babe5408a88614a79cfc6",
      "function": "setAuthorizedDispatcher(uint64,address)",
      "arguments": [
        "14767482510784806043",
        "0x4e9B091b3dED8121D67e3835F65B26d89a0471E6"
      ],
      "transaction": {
        "from": "0x0bd7dd9a885d9526ff82813829ef5c7d8afdb8c4",
        "to": "0x4385cca9d33ea995fd1babe5408a88614a79cfc6",
        "gas": "0x114d5",
        "value": "0x0",
        "input": "0x15d8c820000000000000000000000000000000000000000000000000ccf0a31a221f3c9b0000000000000000000000004e9b091b3ded8121d67e3835f65b26d89a0471e6",
        "nonce": "0x1c",
        "chainId": "0xaa36a7"
      },
      "additionalContracts": [],
      "isFixedGasLimit": false
    }
  ],
  "receipts": [
    {
      "status": "0x1",
      "cumulativeGasUsed": "0xcbfb6d",
      "logs": [
        {
          "address": "0x4385cca9d33ea995fd1babe5408a88614a79cfc6",
          "topics": [
            "0xba02a8acd8030dd316cda5538e253022a0b36e3c67a842bc576e76cfd075fd88",
            "0x000000000000000000000000000000000000000000000000ccf0a31a221f3c9b"
          ],
          "data": "0x0000000000000000000000004e9b091b3ded8121d67e3835f65b26d89a0471e6",
          "blockHash": "0xbbb3dc10ab64cf5d51b301c9487686f982c146a12cb7b73c29b189ef63f2d11b",
          "blockNumber": "0x8349f3",
          "blockTimestamp": "0x6857ebfc",
          "transactionHash": "0x0fc48873f32fe1f9668524dfc21e50a1b311f02055b3b24896f02738393b78b7",
          "transactionIndex": "0x8f",
          "logIndex": "0x70",
          "removed": false
        }
      ],
      "logsBloom": "0x00000000000000000000000000000000000000000000000000000000000000000000000000000000000010000000000000000000000000000000000000000000000000000400000000000000000000000000000000000000000000000000000000000000000000000000000000000040000000000002000000000000000000000000000000000000000000000001000000000000000000000000000000000000000000000000000000000000000000000000000000000000000000000000000000000000000000000000000000000000000000000000000000000800000000400000000000200000000000000000002000000000000000000000000000000000",
      "type": "0x2",
      "transactionHash": "0x0fc48873f32fe1f9668524dfc21e50a1b311f02055b3b24896f02738393b78b7",
      "transactionIndex": "0x8f",
      "blockHash": "0xbbb3dc10ab64cf5d51b301c9487686f982c146a12cb7b73c29b189ef63f2d11b",
      "blockNumber": "0x8349f3",
      "gasUsed": "0xbd4a",
      "effectiveGasPrice": "0x152e5b",
      "from": "0x0bd7dd9a885d9526ff82813829ef5c7d8afdb8c4",
      "to": "0x4385cca9d33ea995fd1babe5408a88614a79cfc6",
      "contractAddress": null
    }
  ],
  "libraries": [],
  "pending": [],
  "returns": {},
  "timestamp": 1750592508,
  "chain": 11155111,
  "commit": "0a309be"
}