{
  "transactions": [
    {
      "hash": "0x9f368d41a41500f6f7a4f81f02d1b17248b60c06e5d63b3f556a3c778cb403e0",
      "transactionType": "CALL",
      "contractName": null,
      "contractAddress": "0x35b8c50ae752414c0e1ff49ed774763124e4bff2",
      "function": "setAuthorizedDispatcher(uint64,address)",
      "arguments": [
        "14767482510784806043",
        "0xC089C6574bA12ef9Db724757Fd3886Ed49940e1f"
      ],
      "transaction": {
        "from": "0x0bd7dd9a885d9526ff82813829ef5c7d8afdb8c4",
        "to": "0x35b8c50ae752414c0e1ff49ed774763124e4bff2",
        "gas": "0xa930",
        "value": "0x0",
        "input": "0x15d8c820000000000000000000000000000000000000000000000000ccf0a31a221f3c9b000000000000000000000000c089c6574ba12ef9db724757fd3886ed49940e1f",
        "nonce": "0x27",
        "chainId": "0xaa36a7"
      },
      "additionalContracts": [],
      "isFixedGasLimit": false
    }
  ],
  "receipts": [
    {
      "status": "0x1",
      "cumulativeGasUsed": "0x2deb386",
      "logs": [
        {
          "address": "0x35b8c50ae752414c0e1ff49ed774763124e4bff2",
          "topics": [
            "0xba02a8acd8030dd316cda5538e253022a0b36e3c67a842bc576e76cfd075fd88",
            "0x000000000000000000000000000000000000000000000000ccf0a31a221f3c9b"
          ],
          "data": "0x000000000000000000000000c089c6574ba12ef9db724757fd3886ed49940e1f",
          "blockHash": "0x8127869adbf0cac86535287ae2f3efb4382a8814a6f9cab49e4e0da7ad1183da",
          "blockNumber": "0x83f0df",
          "blockTimestamp": "0x685fc860",
          "transactionHash": "0x9f368d41a41500f6f7a4f81f02d1b17248b60c06e5d63b3f556a3c778cb403e0",
          "transactionIndex": "0x11a",
          "logIndex": "0x22f",
          "removed": false
        }
      ],
      "logsBloom": "0x00000000000000000000000000000000000000000000000000000000000000000000000000080000000000000000000000000000000000000000000000000000000000000400000000000000000000000000000000000000000000000000000000000000000000000000000000000040000000000000000000000000000000000000000000000000000000000001000000000000000000000000000000000000000000000000000000000000000000000000000002000000000000000001000000000000000000000000000000000000000000000000000000000800000000000000000000200000000000000000002000000000000000000000000000000000",
      "type": "0x2",
      "transactionHash": "0x9f368d41a41500f6f7a4f81f02d1b17248b60c06e5d63b3f556a3c778cb403e0",
      "transactionIndex": "0x11a",
      "blockHash": "0x8127869adbf0cac86535287ae2f3efb4382a8814a6f9cab49e4e0da7ad1183da",
      "blockNumber": "0x83f0df",
      "gasUsed": "0x7a7e",
      "effectiveGasPrice": "0x21e630",
      "from": "0x0bd7dd9a885d9526ff82813829ef5c7d8afdb8c4",
      "to": "0x35b8c50ae752414c0e1ff49ed774763124e4bff2",
      "contractAddress": null
    }
  ],
  "libraries": [],
  "pending": [],
  "returns": {},
  "timestamp": 1751107682,
  "chain": 11155111,
  "commit": "65b00ac"
}