{
  "transactions": [
    {
      "hash": "0x82663f517adbaef70a067034310fa3b2799a3a60174ab07ff8420c3f51c62d04",
      "transactionType": "CALL",
      "contractName": null,
      "contractAddress": "0xc089c6574ba12ef9db724757fd3886ed49940e1f",
      "function": "setChainExecutor(uint64,address)",
      "arguments": [
        "16015286601757825753",
        "0x35b8C50ae752414C0e1Ff49Ed774763124E4BfF2"
      ],
      "transaction": {
        "from": "0x0bd7dd9a885d9526ff82813829ef5c7d8afdb8c4",
        "to": "0xc089c6574ba12ef9db724757fd3886ed49940e1f",
        "gas": "0x10916",
        "value": "0x0",
        "input": "0x807e288c000000000000000000000000000000000000000000000000de41ba4fc9d91ad900000000000000000000000035b8c50ae752414c0e1ff49ed774763124e4bff2",
        "nonce": "0x36",
        "chainId": "0xa869"
      },
      "additionalContracts": [],
      "isFixedGasLimit": false
    }
  ],
  "receipts": [
    {
      "status": "0x1",
      "cumulativeGasUsed": "0x5994a9",
      "logs": [
        {
          "address": "0xc089c6574ba12ef9db724757fd3886ed49940e1f",
          "topics": [
            "0x850e9d84a1c6b7bd8d922fd827abc4100dd576a40ec97b5079b33841fc72e385",
            "0x000000000000000000000000000000000000000000000000de41ba4fc9d91ad9"
          ],
          "data": "0x000000000000000000000000000000000000000000000000000000000000000000000000000000000000000035b8c50ae752414c0e1ff49ed774763124e4bff2",
          "blockHash": "0xf925008fcb67236ed770b154279ef2e41a7134e932c87502e69480a0b048ff26",
          "blockNumber": "0x28a6af7",
          "transactionHash": "0x82663f517adbaef70a067034310fa3b2799a3a60174ab07ff8420c3f51c62d04",
          "transactionIndex": "0x16",
          "logIndex": "0x9e",
          "removed": false
        }
      ],
      "logsBloom": "0x00000000000000000000000000000000000000000000000000000000000000000000000000004000000008000020000000000000000000000000002000000000000000000000000000000000000000000000000000000000000000800000000000000000000000000000000000010000000000000000000000000000000000000000000000000000000000000000000000000020000000000000000000000000000000000000000000000000000000000000000000040000000000000000000000000000000000000000000000000000000000000000000000000000000000000000000000000000000000000000000000000000004000000000000000000000",
      "type": "0x2",
      "transactionHash": "0x82663f517adbaef70a067034310fa3b2799a3a60174ab07ff8420c3f51c62d04",
      "transactionIndex": "0x16",
      "blockHash": "0xf925008fcb67236ed770b154279ef2e41a7134e932c87502e69480a0b048ff26",
      "blockNumber": "0x28a6af7",
      "gasUsed": "0xbfec",
      "effectiveGasPrice": "0x72c056f6",
      "from": "0x0bd7dd9a885d9526ff82813829ef5c7d8afdb8c4",
      "to": "0xc089c6574ba12ef9db724757fd3886ed49940e1f",
      "contractAddress": null
    }
  ],
  "libraries": [],
  "pending": [],
  "returns": {},
  "timestamp": 1751107610,
  "chain": 43113,
  "commit": "65b00ac"
}