{
  "transactions": [
    {
      "hash": "0x3876ec4d4fcb92eb9b686b4c687f13a12bf2251f2963eba21de53163cd22b943",
      "transactionType": "CALL",
      "contractName": null,
      "contractAddress": "0xa3e73b9e6261a950616881a8a084842efb9bdc49",
      "function": "setChainExecutor(uint64,address)",
      "arguments": [
        "16015286601757825753",
        "0x35b8C50ae752414C0e1Ff49Ed774763124E4BfF2"
      ],
      "transaction": {
        "from": "0x0bd7dd9a885d9526ff82813829ef5c7d8afdb8c4",
        "to": "0xa3e73b9e6261a950616881a8a084842efb9bdc49",
        "gas": "0x10916",
        "value": "0x0",
        "input": "0x807e288c000000000000000000000000000000000000000000000000de41ba4fc9d91ad900000000000000000000000035b8c50ae752414c0e1ff49ed774763124e4bff2",
        "nonce": "0x22",
        "chainId": "0xa869"
      },
      "additionalContracts": [],
      "isFixedGasLimit": false
    }
  ],
  "receipts": [
    {
      "status": "0x1",
      "cumulativeGasUsed": "0x89fe9",
      "logs": [
        {
          "address": "0xa3e73b9e6261a950616881a8a084842efb9bdc49",
          "topics": [
            "0x850e9d84a1c6b7bd8d922fd827abc4100dd576a40ec97b5079b33841fc72e385",
            "0x000000000000000000000000000000000000000000000000de41ba4fc9d91ad9"
          ],
          "data": "0x000000000000000000000000000000000000000000000000000000000000000000000000000000000000000035b8c50ae752414c0e1ff49ed774763124e4bff2",
          "blockHash": "0x25e068cd9e7c2dd074f5a0a12f1444706f380124eeb9e44fc66af08c651cc1f8",
          "blockNumber": "0x2853375",
          "transactionHash": "0x3876ec4d4fcb92eb9b686b4c687f13a12bf2251f2963eba21de53163cd22b943",
          "transactionIndex": "0x2",
          "logIndex": "0x6",
          "removed": false
        }
      ],
      "logsBloom": "0x00000000000000000000000000000000000000000000000000000000000000000000000000004000000000000020000000000000000000000000000000000000000000000000000000000000000000000000080000000000000000800000000000000000000000000000000000010000000000000000000000000000000000000000000000000000000000000000000000000020000000000000000000000000000000000000000000000000000000000000000000040000000000000000000000000000000000000000000000000000000000000000000000000000004000000000000000000000000000000000000000000000000000000000000000008000",
      "type": "0x2",
      "transactionHash": "0x3876ec4d4fcb92eb9b686b4c687f13a12bf2251f2963eba21de53163cd22b943",
      "transactionIndex": "0x2",
      "blockHash": "0x25e068cd9e7c2dd074f5a0a12f1444706f380124eeb9e44fc66af08c651cc1f8",
      "blockNumber": "0x2853375",
      "gasUsed": "0xbfec",
      "effectiveGasPrice": "0x2",
      "from": "0x0bd7dd9a885d9526ff82813829ef5c7d8afdb8c4",
      "to": "0xa3e73b9e6261a950616881a8a084842efb9bdc49",
      "contractAddress": null
    }
  ],
  "libraries": [],
  "pending": [],
  "returns": {},
  "timestamp": 1750600257,
  "chain": 43113,
  "commit": "0a309be"
}