{
  "transactions": [
    {
      "hash": "0x1ebb786513ea44cd9c2fcf82eccbfd8d2492bcd7269028f18877573bae4fefdb",
      "transactionType": "CALL",
      "contractName": null,
      "contractAddress": "0x35b8c50ae752414c0e1ff49ed774763124e4bff2",
      "function": "withdrawFundsToSourceChain(uint64,uint256,address,address)",
      "arguments": [
        "14767482510784806043",
        "500000000000000000",
        "0x60A15CA6b63508562d0Cdc9Cf896A9e3bBF79463",
        "0x0bd7dd9A885d9526Ff82813829ef5c7D8AfdB8c4"
      ],
      "transaction": {
        "from": "0x0bd7dd9a885d9526ff82813829ef5c7d8afdb8c4",
        "to": "0x35b8c50ae752414c0e1ff49ed774763124e4bff2",
        "gas": "0x61572",
        "value": "0x0",
        "input": "0xca559ffd000000000000000000000000000000000000000000000000ccf0a31a221f3c9b00000000000000000000000000000000000000000000000006f05b59d3b2000000000000000000000000000060a15ca6b63508562d0cdc9cf896a9e3bbf794630000000000000000000000000bd7dd9a885d9526ff82813829ef5c7d8afdb8c4",
        "nonce": "0x26",
        "chainId": "0xaa36a7"
      },
      "additionalContracts": [],
      "isFixedGasLimit": false
    }
  ],
  "receipts": [
    {
      "status": "0x1",
      "cumulativeGasUsed": "0xfdf655",
      "logs": [
        {
          "address": "0x60a15ca6b63508562d0cdc9cf896a9e3bbf79463",
          "topics": [
            "0xddf252ad1be2c89b69c2b068fc378daa952ba7f163c4a11628f55a4df523b3ef",
            "0x0000000000000000000000000000000000000000000000000000000000000000",
            "0x000000000000000000000000b96c5d0a79b7901a49db43782cdd8e35720971be"
          ],
          "data": "0x00000000000000000000000000000000000000000000000000000613069cb9c8",
          "blockHash": "0xcd75b23697ad6207b8027af6ece75bc56f5dffbd82f8672efa84e05e263f0ba3",
          "blockNumber": "0x834e9f",
          "blockTimestamp": "0x68582418",
          "transactionHash": "0x1ebb786513ea44cd9c2fcf82eccbfd8d2492bcd7269028f18877573bae4fefdb",
          "transactionIndex": "0xcf",
          "logIndex": "0xd8",
          "removed": false
        },
        {
          "address": "0xb96c5d0a79b7901a49db43782cdd8e35720971be",
          "topics": [
            "0xddf252ad1be2c89b69c2b068fc378daa952ba7f163c4a11628f55a4df523b3ef",
            "0x00000000000000000000000035b8c50ae752414c0e1ff49ed774763124e4bff2",
            "0x0000000000000000000000000000000000000000000000000000000000000000"
          ],
          "data": "0x00000000000000000000000000000000000000000000000006f00889646073cd",
          "blockHash": "0xcd75b23697ad6207b8027af6ece75bc56f5dffbd82f8672efa84e05e263f0ba3",
          "blockNumber": "0x834e9f",
          "blockTimestamp": "0x68582418",
          "transactionHash": "0x1ebb786513ea44cd9c2fcf82eccbfd8d2492bcd7269028f18877573bae4fefdb",
          "transactionIndex": "0xcf",
          "logIndex": "0xd9",
          "removed": false
        },
        {
          "address": "0x60a15ca6b63508562d0cdc9cf896a9e3bbf79463",
          "topics": [
            "0xddf252ad1be2c89b69c2b068fc378daa952ba7f163c4a11628f55a4df523b3ef",
            "0x000000000000000000000000b96c5d0a79b7901a49db43782cdd8e35720971be",
            "0x00000000000000000000000035b8c50ae752414c0e1ff49ed774763124e4bff2"
          ],
          "data": "0x00000000000000000000000000000000000000000000000006f05b59d3b20000",
          "blockHash": "0xcd75b23697ad6207b8027af6ece75bc56f5dffbd82f8672efa84e05e263f0ba3",
          "blockNumber": "0x834e9f",
          "blockTimestamp": "0x68582418",
          "transactionHash": "0x1ebb786513ea44cd9c2fcf82eccbfd8d2492bcd7269028f18877573bae4fefdb",
          "transactionIndex": "0xcf",
          "logIndex": "0xda",
          "removed": false
        },
        {
          "address": "0xb96c5d0a79b7901a49db43782cdd8e35720971be",
          "topics": [
            "0xfbde797d201c681b91056529119e0b02407c7bb96a4a2c75c01fc9667232c8db",
            "0x00000000000000000000000035b8c50ae752414c0e1ff49ed774763124e4bff2",
            "0x00000000000000000000000035b8c50ae752414c0e1ff49ed774763124e4bff2",
            "0x00000000000000000000000035b8c50ae752414c0e1ff49ed774763124e4bff2"
          ],
          "data": "0x00000000000000000000000000000000000000000000000006f05b59d3b2000000000000000000000000000000000000000000000000000006f00889646073cd",
          "blockHash": "0xcd75b23697ad6207b8027af6ece75bc56f5dffbd82f8672efa84e05e263f0ba3",
          "blockNumber": "0x834e9f",
          "blockTimestamp": "0x68582418",
          "transactionHash": "0x1ebb786513ea44cd9c2fcf82eccbfd8d2492bcd7269028f18877573bae4fefdb",
          "transactionIndex": "0xcf",
          "logIndex": "0xdb",
          "removed": false
        },
        {
          "address": "0x35b8c50ae752414c0e1ff49ed774763124e4bff2",
          "topics": [
            "0x080a49aa43b33f2f3fe14496cbedde2305f0cc484e98afb78e943cf9881adc8a",
            "0x000000000000000000000000b96c5d0a79b7901a49db43782cdd8e35720971be",
            "0x00000000000000000000000060a15ca6b63508562d0cdc9cf896a9e3bbf79463"
          ],
          "data": "0x00000000000000000000000000000000000000000000000006f05b59d3b2000000000000000000000000000000000000000000000000000006f00889646073cd",
          "blockHash": "0xcd75b23697ad6207b8027af6ece75bc56f5dffbd82f8672efa84e05e263f0ba3",
          "blockNumber": "0x834e9f",
          "blockTimestamp": "0x68582418",
          "transactionHash": "0x1ebb786513ea44cd9c2fcf82eccbfd8d2492bcd7269028f18877573bae4fefdb",
          "transactionIndex": "0xcf",
          "logIndex": "0xdc",
          "removed": false
        },
        {
          "address": "0x779877a7b0d9e8603169ddbd7836e478b4624789",
          "topics": [
            "0x8c5be1e5ebec7d5bd14f71427d1e84f3dd0314c0f7b2291e5b200ac8c7c3b925",
            "0x00000000000000000000000035b8c50ae752414c0e1ff49ed774763124e4bff2",
            "0x0000000000000000000000000bf3de8c5d3e8a2b34d2beeb17abfcebaf363a59"
          ],
          "data": "0x0000000000000000000000000000000000000000000000000049ac059d1b7e3d",
          "blockHash": "0xcd75b23697ad6207b8027af6ece75bc56f5dffbd82f8672efa84e05e263f0ba3",
          "blockNumber": "0x834e9f",
          "blockTimestamp": "0x68582418",
          "transactionHash": "0x1ebb786513ea44cd9c2fcf82eccbfd8d2492bcd7269028f18877573bae4fefdb",
          "transactionIndex": "0xcf",
          "logIndex": "0xdd",
          "removed": false
        },
        {
          "address": "0x60a15ca6b63508562d0cdc9cf896a9e3bbf79463",
          "topics": [
            "0x8c5be1e5ebec7d5bd14f71427d1e84f3dd0314c0f7b2291e5b200ac8c7c3b925",
            "0x00000000000000000000000035b8c50ae752414c0e1ff49ed774763124e4bff2",
            "0x0000000000000000000000000bf3de8c5d3e8a2b34d2beeb17abfcebaf363a59"
          ],
          "data": "0x00000000000000000000000000000000000000000000000006f05b59d3b20000",
          "blockHash": "0xcd75b23697ad6207b8027af6ece75bc56f5dffbd82f8672efa84e05e263f0ba3",
          "blockNumber": "0x834e9f",
          "blockTimestamp": "0x68582418",
          "transactionHash": "0x1ebb786513ea44cd9c2fcf82eccbfd8d2492bcd7269028f18877573bae4fefdb",
          "transactionIndex": "0xcf",
          "logIndex": "0xde",
          "removed": false
        },
        {
          "address": "0x779877a7b0d9e8603169ddbd7836e478b4624789",
          "topics": [
            "0xddf252ad1be2c89b69c2b068fc378daa952ba7f163c4a11628f55a4df523b3ef",
            "0x00000000000000000000000035b8c50ae752414c0e1ff49ed774763124e4bff2",
            "0x00000000000000000000000012492154714fbd28f28219f6fc4315d19de1025b"
          ],
          "data": "0x0000000000000000000000000000000000000000000000000049ac059d1b7e3d",
          "blockHash": "0xcd75b23697ad6207b8027af6ece75bc56f5dffbd82f8672efa84e05e263f0ba3",
          "blockNumber": "0x834e9f",
          "blockTimestamp": "0x68582418",
          "transactionHash": "0x1ebb786513ea44cd9c2fcf82eccbfd8d2492bcd7269028f18877573bae4fefdb",
          "transactionIndex": "0xcf",
          "logIndex": "0xdf",
          "removed": false
        },
        {
          "address": "0x779877a7b0d9e8603169ddbd7836e478b4624789",
          "topics": [
            "0x8c5be1e5ebec7d5bd14f71427d1e84f3dd0314c0f7b2291e5b200ac8c7c3b925",
            "0x00000000000000000000000035b8c50ae752414c0e1ff49ed774763124e4bff2",
            "0x0000000000000000000000000bf3de8c5d3e8a2b34d2beeb17abfcebaf363a59"
          ],
          "data": "0x0000000000000000000000000000000000000000000000000000000000000000",
          "blockHash": "0xcd75b23697ad6207b8027af6ece75bc56f5dffbd82f8672efa84e05e263f0ba3",
          "blockNumber": "0x834e9f",
          "blockTimestamp": "0x68582418",
          "transactionHash": "0x1ebb786513ea44cd9c2fcf82eccbfd8d2492bcd7269028f18877573bae4fefdb",
          "transactionIndex": "0xcf",
          "logIndex": "0xe0",
          "removed": false
        },
        {
          "address": "0x60a15ca6b63508562d0cdc9cf896a9e3bbf79463",
          "topics": [
            "0xddf252ad1be2c89b69c2b068fc378daa952ba7f163c4a11628f55a4df523b3ef",
            "0x00000000000000000000000035b8c50ae752414c0e1ff49ed774763124e4bff2",
            "0x0000000000000000000000007c84f757f4db3a80be60b269e6b993740f24e5e9"
          ],
          "data": "0x00000000000000000000000000000000000000000000000006f05b59d3b20000",
          "blockHash": "0xcd75b23697ad6207b8027af6ece75bc56f5dffbd82f8672efa84e05e263f0ba3",
          "blockNumber": "0x834e9f",
          "blockTimestamp": "0x68582418",
          "transactionHash": "0x1ebb786513ea44cd9c2fcf82eccbfd8d2492bcd7269028f18877573bae4fefdb",
          "transactionIndex": "0xcf",
          "logIndex": "0xe1",
          "removed": false
        },
        {
          "address": "0x60a15ca6b63508562d0cdc9cf896a9e3bbf79463",
          "topics": [
            "0xddf252ad1be2c89b69c2b068fc378daa952ba7f163c4a11628f55a4df523b3ef",
            "0x0000000000000000000000007c84f757f4db3a80be60b269e6b993740f24e5e9",
            "0x0000000000000000000000000000000000000000000000000000000000000000"
          ],
          "data": "0x00000000000000000000000000000000000000000000000006f05b59d3b20000",
          "blockHash": "0xcd75b23697ad6207b8027af6ece75bc56f5dffbd82f8672efa84e05e263f0ba3",
          "blockNumber": "0x834e9f",
          "blockTimestamp": "0x68582418",
          "transactionHash": "0x1ebb786513ea44cd9c2fcf82eccbfd8d2492bcd7269028f18877573bae4fefdb",
          "transactionIndex": "0xcf",
          "logIndex": "0xe2",
          "removed": false
        },
        {
          "address": "0x7c84f757f4db3a80be60b269e6b993740f24e5e9",
          "topics": [
            "0x696de425f79f4a40bc6d2122ca50507f0efbeabbff86a84871b7196ab8ea8df7",
            "0x00000000000000000000000012492154714fbd28f28219f6fc4315d19de1025b"
          ],
          "data": "0x00000000000000000000000000000000000000000000000006f05b59d3b20000",
          "blockHash": "0xcd75b23697ad6207b8027af6ece75bc56f5dffbd82f8672efa84e05e263f0ba3",
          "blockNumber": "0x834e9f",
          "blockTimestamp": "0x68582418",
          "transactionHash": "0x1ebb786513ea44cd9c2fcf82eccbfd8d2492bcd7269028f18877573bae4fefdb",
          "transactionIndex": "0xcf",
          "logIndex": "0xe3",
          "removed": false
        },
        {
          "address": "0x12492154714fbd28f28219f6fc4315d19de1025b",
          "topics": [
            "0xd0c3c799bf9e2639de44391e7f524d229b2b55f5b1ea94b2bf7da42f7243dddd"
          ],
          "data": "0x0000000000000000000000000000000000000000000000000000000000000020000000000000000000000000000000000000000000000000de41ba4fc9d91ad900000000000000000000000035b8c50ae752414c0e1ff49ed774763124e4bff20000000000000000000000000bd7dd9a885d9526ff82813829ef5c7d8afdb8c40000000000000000000000000000000000000000000000000000000000002eef000000000000000000000000000000000000000000000000000000000016e36000000000000000000000000000000000000000000000000000000000000000000000000000000000000000000000000000000000000000000000000000000000000000000000000000000000779877a7b0d9e8603169ddbd7836e478b46247890000000000000000000000000000000000000000000000000049ac059d1b7e3d00000000000000000000000000000000000000000000000000000000000001a0000000000000000000000000000000000000000000000000000000000000028000000000000000000000000000000000000000000000000000000000000002e0c634a19a0940f3c22d5c83b165bf14d819a99373feb71304400fa42bfc597bc400000000000000000000000000000000000000000000000000000000000000c0000000000000000000000000000000000000000000000000000000000000008000000000000000000000000000000000000000000000000000000000000000000000000000000000000000000000000000000000000000000000000000000000000000000000000000000000000000000000000000000000000000000000000000000000000000000000000000000000000000000000000000000000000000105749544844524157414c5f46554e445300000000000000000000000000000000000000000000000000000000000000000000000000000000000000000000000100000000000000000000000060a15ca6b63508562d0cdc9cf896a9e3bbf7946300000000000000000000000000000000000000000000000006f05b59d3b200000000000000000000000000000000000000000000000000000000000000000001000000000000000000000000000000000000000000000000000000000000002000000000000000000000000000000000000000000000000000000000000001600000000000000000000000000000000000000000000000000000000000000020000000000000000000000000000000000000000000000000000000000000008000000000000000000000000000000000000000000000000000000000000000c000000000000000000000000000000000000000000000000000000000000001000000000000000000000000000000000000000000000000000000000000015f9000000000000000000000000000000000000000000000000000000000000000200000000000000000000000007c84f757f4db3a80be60b269e6b993740f24e5e9000000000000000000000000000000000000000000000000000000000000002000000000000000000000000060a15ca6b63508562d0cdc9cf896a9e3bbf7946300000000000000000000000000000000000000000000000000000000000000200000000000000000000000000000000000000000000000000000000000000012",
          "blockHash": "0xcd75b23697ad6207b8027af6ece75bc56f5dffbd82f8672efa84e05e263f0ba3",
          "blockNumber": "0x834e9f",
          "blockTimestamp": "0x68582418",
          "transactionHash": "0x1ebb786513ea44cd9c2fcf82eccbfd8d2492bcd7269028f18877573bae4fefdb",
          "transactionIndex": "0xcf",
          "logIndex": "0xe4",
          "removed": false
        },
        {
          "address": "0x35b8c50ae752414c0e1ff49ed774763124e4bff2",
          "topics": [
            "0x080a49aa43b33f2f3fe14496cbedde2305f0cc484e98afb78e943cf9881adc8a",
            "0x000000000000000000000000b96c5d0a79b7901a49db43782cdd8e35720971be",
            "0x00000000000000000000000060a15ca6b63508562d0cdc9cf896a9e3bbf79463"
          ],
          "data": "0x00000000000000000000000000000000000000000000000006f05b59d3b2000000000000000000000000000000000000000000000000000006f05b59d3b20000",
          "blockHash": "0xcd75b23697ad6207b8027af6ece75bc56f5dffbd82f8672efa84e05e263f0ba3",
          "blockNumber": "0x834e9f",
          "blockTimestamp": "0x68582418",
          "transactionHash": "0x1ebb786513ea44cd9c2fcf82eccbfd8d2492bcd7269028f18877573bae4fefdb",
          "transactionIndex": "0xcf",
          "logIndex": "0xe5",
          "removed": false
        }
      ],
      "logsBloom": "0x00000004000040400000000000000400000400000000000000000000800000000000000000080800002002000000000800000000080000000000000000200000000000000000000000000008004000040000000000080000000000000100000000000000060100020000000400000802000000000000000100000010000000000000000008000000010000000000900000000000000000000000000000000000020000000000080500000000000000020000000002000000004100000001000000000002400000000000000000010000000000000000000100200000800820200010400000000000000000000000000024000020000000100000000000000020",
      "type": "0x2",
      "transactionHash": "0x1ebb786513ea44cd9c2fcf82eccbfd8d2492bcd7269028f18877573bae4fefdb",
      "transactionIndex": "0xcf",
      "blockHash": "0xcd75b23697ad6207b8027af6ece75bc56f5dffbd82f8672efa84e05e263f0ba3",
      "blockNumber": "0x834e9f",
      "gasUsed": "0x46790",
      "effectiveGasPrice": "0x193b69",
      "from": "0x0bd7dd9a885d9526ff82813829ef5c7d8afdb8c4",
      "to": "0x35b8c50ae752414c0e1ff49ed774763124e4bff2",
      "contractAddress": null
    }
  ],
  "libraries": [],
  "pending": [],
  "returns": {},
  "timestamp": 1750606874,
  "chain": 11155111,
  "commit": "0a309be"
}