{
  "transactions": [
    {
      "hash": "0xdad3b169fd4f29d8fdf07276c5dab8b6d0cffe502f1d5468bdefa68c9149a9b1",
      "transactionType": "CALL",
      "contractName": null,
      "contractAddress": "0x4e9b091b3ded8121d67e3835f65b26d89a0471e6",
      "function": "authorizeCircle(address,bool)",
      "arguments": [
        "0x1804c8AB1F12E6bbf3894d4083f33e07309d1f38",
        "true"
      ],
      "transaction": {
        "from": "0x0bd7dd9a885d9526ff82813829ef5c7d8afdb8c4",
        "to": "0x4e9b091b3ded8121d67e3835f65b26d89a0471e6",
        "gas": "0x9068",
        "value": "0x0",
        "input": "0x82370bf20000000000000000000000001804c8ab1f12e6bbf3894d4083f33e07309d1f380000000000000000000000000000000000000000000000000000000000000001",
        "nonce": "0x1d",
        "chainId": "0xa869"
      },
      "additionalContracts": [],
      "isFixedGasLimit": false
    },
    {
      "hash": "0x0a601f1f4fa2e70ec5dba51ff68f2cd4293d5b3364e61c9ab5789c0f9cad13dd",
      "transactionType": "CALL",
      "contractName": null,
      "contractAddress": "0x60a15ca6b63508562d0cdc9cf896a9e3bbf79463",
      "function": "approve(address,uint256)",
      "arguments": [
        "0x4e9B091b3dED8121D67e3835F65B26d89a0471E6",
        "1000000000000000000"
      ],
      "transaction": {
        "from": "0x0bd7dd9a885d9526ff82813829ef5c7d8afdb8c4",
        "to": "0x60a15ca6b63508562d0cdc9cf896a9e3bbf79463",
        "gas": "0xfd73",
        "value": "0x0",
        "input": "0x095ea7b30000000000000000000000004e9b091b3ded8121d67e3835f65b26d89a0471e60000000000000000000000000000000000000000000000000de0b6b3a7640000",
        "nonce": "0x1e",
        "chainId": "0xa869"
      },
      "additionalContracts": [],
      "isFixedGasLimit": false
    },
    {
      "hash": "0xa1259665dc9e009cd45779925e2e8b879f9ca27da4bcd673b3461d7ecdffe96d",
      "transactionType": "CALL",
      "contractName": null,
      "contractAddress": "0x4e9b091b3ded8121d67e3835f65b26d89a0471e6",
      "function": "deployFunds(uint256,uint64,address)",
      "arguments": [
        "1000000000000000000",
        "16015286601757825753",
        "0x0000000000000000000000000000000000000000"
      ],
      "transaction": {
        "from": "0x0bd7dd9a885d9526ff82813829ef5c7d8afdb8c4",
        "to": "0x4e9b091b3ded8121d67e3835f65b26d89a0471e6",
        "gas": "0x5eafe",
        "value": "0x0",
        "input": "0xdf4d6b0f0000000000000000000000000000000000000000000000000de0b6b3a7640000000000000000000000000000000000000000000000000000de41ba4fc9d91ad90000000000000000000000000000000000000000000000000000000000000000",
        "nonce": "0x1f",
        "chainId": "0xa869"
      },
      "additionalContracts": [],
      "isFixedGasLimit": false
    }
  ],
  "receipts": [
    {
      "status": "0x1",
      "cumulativeGasUsed": "0xe45413",
      "logs": [],
      "logsBloom": "0x00000000000000000000000000000000000000000000000000000000000000000000000000000000000000000000000000000000000000000000000000000000000000000000000000000000000000000000000000000000000000000000000000000000000000000000000000000000000000000000000000000000000000000000000000000000000000000000000000000000000000000000000000000000000000000000000000000000000000000000000000000000000000000000000000000000000000000000000000000000000000000000000000000000000000000000000000000000000000000000000000000000000000000000000000000000",
      "type": "0x2",
      "transactionHash": "0xdad3b169fd4f29d8fdf07276c5dab8b6d0cffe502f1d5468bdefa68c9149a9b1",
      "transactionIndex": "0x26",
      "blockHash": "0x83af80233160d3dbdd223bfec8740317b490b17ca3fb2dc5e4259a4be16b92fe",
      "blockNumber": "0x285261c",
      "gasUsed": "0x688d",
      "effectiveGasPrice": "0x2",
      "from": "0x0bd7dd9a885d9526ff82813829ef5c7d8afdb8c4",
      "to": "0x4e9b091b3ded8121d67e3835f65b26d89a0471e6",
      "contractAddress": null
    },
    {
      "status": "0x1",
      "cumulativeGasUsed": "0x1bfaba",
      "logs": [
        {
          "address": "0x60a15ca6b63508562d0cdc9cf896a9e3bbf79463",
          "topics": [
            "0x8c5be1e5ebec7d5bd14f71427d1e84f3dd0314c0f7b2291e5b200ac8c7c3b925",
            "0x0000000000000000000000000bd7dd9a885d9526ff82813829ef5c7d8afdb8c4",
            "0x0000000000000000000000004e9b091b3ded8121d67e3835f65b26d89a0471e6"
          ],
          "data": "0x0000000000000000000000000000000000000000000000000de0b6b3a7640000",
          "blockHash": "0x9f40ba2e7a9d4c38434cd5f99a559e55dd7ae66e6f03a97570b9ded819bd5c4a",
          "blockNumber": "0x285261d",
          "transactionHash": "0x0a601f1f4fa2e70ec5dba51ff68f2cd4293d5b3364e61c9ab5789c0f9cad13dd",
          "transactionIndex": "0x5",
          "logIndex": "0xe",
          "removed": false
        }
      ],
      "logsBloom": "0x000000000000000000040000000000000000000000000000000000000000000000000000000008000000000000000000000000000000000000000000002000000000000000000000000000000000000000000000000000000000000000000000000000000000000000000000000000000000000000000000000000000000000000000000000000000100000000000000004000000000200000000000000000000200400000000000000000000000000000000000000000000000000000000000000000000000000000000000000000000000000000000000000000020000000000100000000000000000000000000000a0000000000000000000000000000000",
      "type": "0x2",
      "transactionHash": "0x0a601f1f4fa2e70ec5dba51ff68f2cd4293d5b3364e61c9ab5789c0f9cad13dd",
      "transactionIndex": "0x5",
      "blockHash": "0x9f40ba2e7a9d4c38434cd5f99a559e55dd7ae66e6f03a97570b9ded819bd5c4a",
      "blockNumber": "0x285261d",
      "gasUsed": "0xb77f",
      "effectiveGasPrice": "0x2",
      "from": "0x0bd7dd9a885d9526ff82813829ef5c7d8afdb8c4",
      "to": "0x60a15ca6b63508562d0cdc9cf896a9e3bbf79463",
      "contractAddress": null
    },
    {
      "status": "0x1",
      "cumulativeGasUsed": "0x2155c2",
      "logs": [
        {
          "address": "0x60a15ca6b63508562d0cdc9cf896a9e3bbf79463",
          "topics": [
            "0x8c5be1e5ebec7d5bd14f71427d1e84f3dd0314c0f7b2291e5b200ac8c7c3b925",
            "0x0000000000000000000000004e9b091b3ded8121d67e3835f65b26d89a0471e6",
            "0x0000000000000000000000004e9b091b3ded8121d67e3835f65b26d89a0471e6"
          ],
          "data": "0x0000000000000000000000000000000000000000000000000de0b6b3a7734240",
          "blockHash": "0x9f40ba2e7a9d4c38434cd5f99a559e55dd7ae66e6f03a97570b9ded819bd5c4a",
          "blockNumber": "0x285261d",
          "transactionHash": "0xa1259665dc9e009cd45779925e2e8b879f9ca27da4bcd673b3461d7ecdffe96d",
          "transactionIndex": "0x6",
          "logIndex": "0xf",
          "removed": false
        },
        {
          "address": "0x60a15ca6b63508562d0cdc9cf896a9e3bbf79463",
          "topics": [
            "0xddf252ad1be2c89b69c2b068fc378daa952ba7f163c4a11628f55a4df523b3ef",
            "0x0000000000000000000000000bd7dd9a885d9526ff82813829ef5c7d8afdb8c4",
            "0x0000000000000000000000004e9b091b3ded8121d67e3835f65b26d89a0471e6"
          ],
          "data": "0x0000000000000000000000000000000000000000000000000de0b6b3a7640000",
          "blockHash": "0x9f40ba2e7a9d4c38434cd5f99a559e55dd7ae66e6f03a97570b9ded819bd5c4a",
          "blockNumber": "0x285261d",
          "transactionHash": "0xa1259665dc9e009cd45779925e2e8b879f9ca27da4bcd673b3461d7ecdffe96d",
          "transactionIndex": "0x6",
          "logIndex": "0x10",
          "removed": false
        },
        {
          "address": "0x0b9d5d9136855f6fec3c0993fee6e9ce8a297846",
          "topics": [
            "0x8c5be1e5ebec7d5bd14f71427d1e84f3dd0314c0f7b2291e5b200ac8c7c3b925",
            "0x0000000000000000000000004e9b091b3ded8121d67e3835f65b26d89a0471e6",
            "0x000000000000000000000000f694e193200268f9a4868e4aa017a0118c9a8177"
          ],
          "data": "0x00000000000000000000000000000000000000000000000000473c3a7141903a",
          "blockHash": "0x9f40ba2e7a9d4c38434cd5f99a559e55dd7ae66e6f03a97570b9ded819bd5c4a",
          "blockNumber": "0x285261d",
          "transactionHash": "0xa1259665dc9e009cd45779925e2e8b879f9ca27da4bcd673b3461d7ecdffe96d",
          "transactionIndex": "0x6",
          "logIndex": "0x11",
          "removed": false
        },
        {
          "address": "0x60a15ca6b63508562d0cdc9cf896a9e3bbf79463",
          "topics": [
            "0x8c5be1e5ebec7d5bd14f71427d1e84f3dd0314c0f7b2291e5b200ac8c7c3b925",
            "0x0000000000000000000000004e9b091b3ded8121d67e3835f65b26d89a0471e6",
            "0x000000000000000000000000f694e193200268f9a4868e4aa017a0118c9a8177"
          ],
          "data": "0x0000000000000000000000000000000000000000000000000de0b6b3a7640000",
          "blockHash": "0x9f40ba2e7a9d4c38434cd5f99a559e55dd7ae66e6f03a97570b9ded819bd5c4a",
          "blockNumber": "0x285261d",
          "transactionHash": "0xa1259665dc9e009cd45779925e2e8b879f9ca27da4bcd673b3461d7ecdffe96d",
          "transactionIndex": "0x6",
          "logIndex": "0x12",
          "removed": false
        },
        {
          "address": "0x0b9d5d9136855f6fec3c0993fee6e9ce8a297846",
          "topics": [
            "0xddf252ad1be2c89b69c2b068fc378daa952ba7f163c4a11628f55a4df523b3ef",
            "0x0000000000000000000000004e9b091b3ded8121d67e3835f65b26d89a0471e6",
            "0x00000000000000000000000075b9a75ee1ffef6be7c4f842a041de7c6153cf4e"
          ],
          "data": "0x00000000000000000000000000000000000000000000000000473c3a7141903a",
          "blockHash": "0x9f40ba2e7a9d4c38434cd5f99a559e55dd7ae66e6f03a97570b9ded819bd5c4a",
          "blockNumber": "0x285261d",
          "transactionHash": "0xa1259665dc9e009cd45779925e2e8b879f9ca27da4bcd673b3461d7ecdffe96d",
          "transactionIndex": "0x6",
          "logIndex": "0x13",
          "removed": false
        },
        {
          "address": "0x60a15ca6b63508562d0cdc9cf896a9e3bbf79463",
          "topics": [
            "0xddf252ad1be2c89b69c2b068fc378daa952ba7f163c4a11628f55a4df523b3ef",
            "0x0000000000000000000000004e9b091b3ded8121d67e3835f65b26d89a0471e6",
            "0x0000000000000000000000002d9bf08c367fe7cf2d5d76e43fcfe46ce7660691"
          ],
          "data": "0x0000000000000000000000000000000000000000000000000de0b6b3a7640000",
          "blockHash": "0x9f40ba2e7a9d4c38434cd5f99a559e55dd7ae66e6f03a97570b9ded819bd5c4a",
          "blockNumber": "0x285261d",
          "transactionHash": "0xa1259665dc9e009cd45779925e2e8b879f9ca27da4bcd673b3461d7ecdffe96d",
          "transactionIndex": "0x6",
          "logIndex": "0x14",
          "removed": false
        },
        {
          "address": "0x60a15ca6b63508562d0cdc9cf896a9e3bbf79463",
          "topics": [
            "0xddf252ad1be2c89b69c2b068fc378daa952ba7f163c4a11628f55a4df523b3ef",
            "0x0000000000000000000000002d9bf08c367fe7cf2d5d76e43fcfe46ce7660691",
            "0x0000000000000000000000000000000000000000000000000000000000000000"
          ],
          "data": "0x0000000000000000000000000000000000000000000000000de0b6b3a7640000",
          "blockHash": "0x9f40ba2e7a9d4c38434cd5f99a559e55dd7ae66e6f03a97570b9ded819bd5c4a",
          "blockNumber": "0x285261d",
          "transactionHash": "0xa1259665dc9e009cd45779925e2e8b879f9ca27da4bcd673b3461d7ecdffe96d",
          "transactionIndex": "0x6",
          "logIndex": "0x15",
          "removed": false
        },
        {
          "address": "0x2d9bf08c367fe7cf2d5d76e43fcfe46ce7660691",
          "topics": [
            "0x696de425f79f4a40bc6d2122ca50507f0efbeabbff86a84871b7196ab8ea8df7",
            "0x00000000000000000000000075b9a75ee1ffef6be7c4f842a041de7c6153cf4e"
          ],
          "data": "0x0000000000000000000000000000000000000000000000000de0b6b3a7640000",
          "blockHash": "0x9f40ba2e7a9d4c38434cd5f99a559e55dd7ae66e6f03a97570b9ded819bd5c4a",
          "blockNumber": "0x285261d",
          "transactionHash": "0xa1259665dc9e009cd45779925e2e8b879f9ca27da4bcd673b3461d7ecdffe96d",
          "transactionIndex": "0x6",
          "logIndex": "0x16",
          "removed": false
        },
        {
          "address": "0x75b9a75ee1ffef6be7c4f842a041de7c6153cf4e",
          "topics": [
            "0xd0c3c799bf9e2639de44391e7f524d229b2b55f5b1ea94b2bf7da42f7243dddd"
          ],
          "data": "0x0000000000000000000000000000000000000000000000000000000000000020000000000000000000000000000000000000000000000000ccf0a31a221f3c9b0000000000000000000000004e9b091b3ded8121d67e3835f65b26d89a0471e60000000000000000000000004385cca9d33ea995fd1babe5408a88614a79cfc6000000000000000000000000000000000000000000000000000000000000121700000000000000000000000000000000000000000000000000000000002625a0000000000000000000000000000000000000000000000000000000000000000000000000000000000000000000000000000000000000000000000000000000000000000000000000000000000b9d5d9136855f6fec3c0993fee6e9ce8a29784600000000000000000000000000000000000000000000000000473c3a7141903a00000000000000000000000000000000000000000000000000000000000001a0000000000000000000000000000000000000000000000000000000000000028000000000000000000000000000000000000000000000000000000000000002e08739a2873f132869d4e394a8db7c237cadea6f8fc5eb8074867b61ae8463a8c000000000000000000000000000000000000000000000000000000000000000c000000000000000000000000000000000000000000000000000000000000000800000000000000000000000000000000000000000000000000de0b6b3a764000000000000000000000000000060a15ca6b63508562d0cdc9cf896a9e3bbf794630000000000000000000000000000000000000000000000000000000000000000000000000000000000000000000000000000000000000000000000000000000c4445504c4f595f46554e44530000000000000000000000000000000000000000000000000000000000000000000000000000000000000000000000000000000100000000000000000000000060a15ca6b63508562d0cdc9cf896a9e3bbf794630000000000000000000000000000000000000000000000000de0b6b3a76400000000000000000000000000000000000000000000000000000000000000000001000000000000000000000000000000000000000000000000000000000000002000000000000000000000000000000000000000000000000000000000000001600000000000000000000000000000000000000000000000000000000000000020000000000000000000000000000000000000000000000000000000000000008000000000000000000000000000000000000000000000000000000000000000c000000000000000000000000000000000000000000000000000000000000001000000000000000000000000000000000000000000000000000000000000015f9000000000000000000000000000000000000000000000000000000000000000200000000000000000000000002d9bf08c367fe7cf2d5d76e43fcfe46ce7660691000000000000000000000000000000000000000000000000000000000000002000000000000000000000000060a15ca6b63508562d0cdc9cf896a9e3bbf7946300000000000000000000000000000000000000000000000000000000000000200000000000000000000000000000000000000000000000000000000000000012",
          "blockHash": "0x9f40ba2e7a9d4c38434cd5f99a559e55dd7ae66e6f03a97570b9ded819bd5c4a",
          "blockNumber": "0x285261d",
          "transactionHash": "0xa1259665dc9e009cd45779925e2e8b879f9ca27da4bcd673b3461d7ecdffe96d",
          "transactionIndex": "0x6",
          "logIndex": "0x17",
          "removed": false
        },
        {
          "address": "0x4e9b091b3ded8121d67e3835f65b26d89a0471e6",
          "topics": [
            "0x091ab715760899af2cbb5ec99e800a213e48b0754ed63681b178aab4c84ccebd",
            "0x8739a2873f132869d4e394a8db7c237cadea6f8fc5eb8074867b61ae8463a8c0",
            "0x000000000000000000000000000000000000000000000000de41ba4fc9d91ad9"
          ],
          "data": "0x0000000000000000000000004385cca9d33ea995fd1babe5408a88614a79cfc60000000000000000000000000000000000000000000000000de0b6b3a764000000000000000000000000000000000000000000000000000000473c3a7141903a",
          "blockHash": "0x9f40ba2e7a9d4c38434cd5f99a559e55dd7ae66e6f03a97570b9ded819bd5c4a",
          "blockNumber": "0x285261d",
          "transactionHash": "0xa1259665dc9e009cd45779925e2e8b879f9ca27da4bcd673b3461d7ecdffe96d",
          "transactionIndex": "0x6",
          "logIndex": "0x18",
          "removed": false
        }
      ],
      "logsBloom": "0x010000000000000000050100000000000000000000000400000000000000000000000000000048000020000000000002000000000000000000000020002000000000000000000000000100080000000000000000000000000000000000000000000000000600000000000000000108060000000000080000000080100000000000080000000100000100000008000000004000200000200000000000000000000200400000000006000000010000080000800000000008000001001000000000000000020002000000000088000000000000000000400008000000020000200000100000000000000000000020000000a4000200000000000000000100000000",
      "type": "0x2",
      "transactionHash": "0xa1259665dc9e009cd45779925e2e8b879f9ca27da4bcd673b3461d7ecdffe96d",
      "transactionIndex": "0x6",
      "blockHash": "0x9f40ba2e7a9d4c38434cd5f99a559e55dd7ae66e6f03a97570b9ded819bd5c4a",
      "blockNumber": "0x285261d",
      "gasUsed": "0x55b08",
      "effectiveGasPrice": "0x2",
      "from": "0x0bd7dd9a885d9526ff82813829ef5c7d8afdb8c4",
      "to": "0x4e9b091b3ded8121d67e3835f65b26d89a0471e6",
      "contractAddress": null
    }
  ],
  "libraries": [],
  "pending": [],
  "returns": {},
  "timestamp": 1750594886,
  "chain": 43113,
  "commit": "0a309be"
}