{
  "transactions": [
    {
      "hash": "0xd1b2c369c491bb843fad0efd5ad858f8d05efea84100dc55163572d7365771dd",
      "transactionType": "CALL",
      "contractName": null,
      "contractAddress": "0x4e9b091b3ded8121d67e3835f65b26d89a0471e6",
      "function": "authorizeCircle(address,bool)",
      "arguments": [
        "0x1804c8AB1F12E6bbf3894d4083f33e07309d1f38",
        "true"
      ],
      "transaction": {
        "from": "0x0bd7dd9a885d9526ff82813829ef5c7d8afdb8c4",
        "to": "0x4e9b091b3ded8121d67e3835f65b26d89a0471e6",
        "gas": "0x10a97",
        "value": "0x0",
        "input": "0x82370bf20000000000000000000000001804c8ab1f12e6bbf3894d4083f33e07309d1f380000000000000000000000000000000000000000000000000000000000000001",
        "nonce": "0x1a",
        "chainId": "0xa869"
      },
      "additionalContracts": [],
      "isFixedGasLimit": false
    },
    {
      "hash": "0x5a4f24b9b191bf5ec30159492477ab6a03b588e0c4b10500907b9a38b01cd3b3",
      "transactionType": "CALL",
      "contractName": null,
      "contractAddress": "0x60a15ca6b63508562d0cdc9cf896a9e3bbf79463",
      "function": "approve(address,uint256)",
      "arguments": [
        "0x4e9B091b3dED8121D67e3835F65B26d89a0471E6",
        "1000000"
      ],
      "transaction": {
        "from": "0x0bd7dd9a885d9526ff82813829ef5c7d8afdb8c4",
        "to": "0x60a15ca6b63508562d0cdc9cf896a9e3bbf79463",
        "gas": "0x10c27",
        "value": "0x0",
        "input": "0x095ea7b30000000000000000000000004e9b091b3ded8121d67e3835f65b26d89a0471e600000000000000000000000000000000000000000000000000000000000f4240",
        "nonce": "0x1b",
        "chainId": "0xa869"
      },
      "additionalContracts": [],
      "isFixedGasLimit": false
    },
    {
      "hash": "0x691ea32655c54332298f2ac12dd861109334d97930ce9805d3115fc96d1eca14",
      "transactionType": "CALL",
      "contractName": null,
      "contractAddress": "0x4e9b091b3ded8121d67e3835f65b26d89a0471e6",
      "function": "deployFunds(uint256,uint64,address)",
      "arguments": [
        "1000000",
        "16015286601757825753",
        "0x0000000000000000000000000000000000000000"
      ],
      "transaction": {
        "from": "0x0bd7dd9a885d9526ff82813829ef5c7d8afdb8c4",
        "to": "0x4e9b091b3ded8121d67e3835f65b26d89a0471e6",
        "gas": "0x67e74",
        "value": "0x0",
        "input": "0xdf4d6b0f00000000000000000000000000000000000000000000000000000000000f4240000000000000000000000000000000000000000000000000de41ba4fc9d91ad90000000000000000000000000000000000000000000000000000000000000000",
        "nonce": "0x1c",
        "chainId": "0xa869"
      },
      "additionalContracts": [],
      "isFixedGasLimit": false
    }
  ],
  "receipts": [
    {
      "status": "0x1",
      "cumulativeGasUsed": "0x413e72",
      "logs": [],
      "logsBloom": "0x00000000000000000000000000000000000000000000000000000000000000000000000000000000000000000000000000000000000000000000000000000000000000000000000000000000000000000000000000000000000000000000000000000000000000000000000000000000000000000000000000000000000000000000000000000000000000000000000000000000000000000000000000000000000000000000000000000000000000000000000000000000000000000000000000000000000000000000000000000000000000000000000000000000000000000000000000000000000000000000000000000000000000000000000000000000",
      "type": "0x2",
      "transactionHash": "0xd1b2c369c491bb843fad0efd5ad858f8d05efea84100dc55163572d7365771dd",
      "transactionIndex": "0xe",
      "blockHash": "0x309286841ce3673dd76e6fe2643c8c2f554ed281f839f45ff225de80d214ab51",
      "blockNumber": "0x2852486",
      "gasUsed": "0xb649",
      "effectiveGasPrice": "0x2",
      "from": "0x0bd7dd9a885d9526ff82813829ef5c7d8afdb8c4",
      "to": "0x4e9b091b3ded8121d67e3835f65b26d89a0471e6",
      "contractAddress": null
    },
    {
      "status": "0x1",
      "cumulativeGasUsed": "0x41f5cd",
      "logs": [
        {
          "address": "0x60a15ca6b63508562d0cdc9cf896a9e3bbf79463",
          "topics": [
            "0x8c5be1e5ebec7d5bd14f71427d1e84f3dd0314c0f7b2291e5b200ac8c7c3b925",
            "0x0000000000000000000000000bd7dd9a885d9526ff82813829ef5c7d8afdb8c4",
            "0x0000000000000000000000004e9b091b3ded8121d67e3835f65b26d89a0471e6"
          ],
          "data": "0x00000000000000000000000000000000000000000000000000000000000f4240",
          "blockHash": "0x309286841ce3673dd76e6fe2643c8c2f554ed281f839f45ff225de80d214ab51",
          "blockNumber": "0x2852486",
          "transactionHash": "0x5a4f24b9b191bf5ec30159492477ab6a03b588e0c4b10500907b9a38b01cd3b3",
          "transactionIndex": "0xf",
          "logIndex": "0x2c",
          "removed": false
        }
      ],
      "logsBloom": "0x000000000000000000040000000000000000000000000000000000000000000000000000000008000000000000000000000000000000000000000000002000000000000000000000000000000000000000000000000000000000000000000000000000000000000000000000000000000000000000000000000000000000000000000000000000000100000000000000004000000000200000000000000000000200400000000000000000000000000000000000000000000000000000000000000000000000000000000000000000000000000000000000000000020000000000100000000000000000000000000000a0000000000000000000000000000000",
      "type": "0x2",
      "transactionHash": "0x5a4f24b9b191bf5ec30159492477ab6a03b588e0c4b10500907b9a38b01cd3b3",
      "transactionIndex": "0xf",
      "blockHash": "0x309286841ce3673dd76e6fe2643c8c2f554ed281f839f45ff225de80d214ab51",
      "blockNumber": "0x2852486",
      "gasUsed": "0xb75b",
      "effectiveGasPrice": "0x2",
      "from": "0x0bd7dd9a885d9526ff82813829ef5c7d8afdb8c4",
      "to": "0x60a15ca6b63508562d0cdc9cf896a9e3bbf79463",
      "contractAddress": null
    },
    {
      "status": "0x1",
      "cumulativeGasUsed": "0x47d649",
      "logs": [
        {
          "address": "0x60a15ca6b63508562d0cdc9cf896a9e3bbf79463",
          "topics": [
            "0x8c5be1e5ebec7d5bd14f71427d1e84f3dd0314c0f7b2291e5b200ac8c7c3b925",
            "0x0000000000000000000000004e9b091b3ded8121d67e3835f65b26d89a0471e6",
            "0x0000000000000000000000004e9b091b3ded8121d67e3835f65b26d89a0471e6"
          ],
          "data": "0x00000000000000000000000000000000000000000000000000000000000f4240",
          "blockHash": "0x309286841ce3673dd76e6fe2643c8c2f554ed281f839f45ff225de80d214ab51",
          "blockNumber": "0x2852486",
          "transactionHash": "0x691ea32655c54332298f2ac12dd861109334d97930ce9805d3115fc96d1eca14",
          "transactionIndex": "0x10",
          "logIndex": "0x2d",
          "removed": false
        },
        {
          "address": "0x60a15ca6b63508562d0cdc9cf896a9e3bbf79463",
          "topics": [
            "0xddf252ad1be2c89b69c2b068fc378daa952ba7f163c4a11628f55a4df523b3ef",
            "0x0000000000000000000000000bd7dd9a885d9526ff82813829ef5c7d8afdb8c4",
            "0x0000000000000000000000004e9b091b3ded8121d67e3835f65b26d89a0471e6"
          ],
          "data": "0x00000000000000000000000000000000000000000000000000000000000f4240",
          "blockHash": "0x309286841ce3673dd76e6fe2643c8c2f554ed281f839f45ff225de80d214ab51",
          "blockNumber": "0x2852486",
          "transactionHash": "0x691ea32655c54332298f2ac12dd861109334d97930ce9805d3115fc96d1eca14",
          "transactionIndex": "0x10",
          "logIndex": "0x2e",
          "removed": false
        },
        {
          "address": "0x0b9d5d9136855f6fec3c0993fee6e9ce8a297846",
          "topics": [
            "0x8c5be1e5ebec7d5bd14f71427d1e84f3dd0314c0f7b2291e5b200ac8c7c3b925",
            "0x0000000000000000000000004e9b091b3ded8121d67e3835f65b26d89a0471e6",
            "0x000000000000000000000000f694e193200268f9a4868e4aa017a0118c9a8177"
          ],
          "data": "0x0000000000000000000000000000000000000000000000000047036df99f0bee",
          "blockHash": "0x309286841ce3673dd76e6fe2643c8c2f554ed281f839f45ff225de80d214ab51",
          "blockNumber": "0x2852486",
          "transactionHash": "0x691ea32655c54332298f2ac12dd861109334d97930ce9805d3115fc96d1eca14",
          "transactionIndex": "0x10",
          "logIndex": "0x2f",
          "removed": false
        },
        {
          "address": "0x60a15ca6b63508562d0cdc9cf896a9e3bbf79463",
          "topics": [
            "0x8c5be1e5ebec7d5bd14f71427d1e84f3dd0314c0f7b2291e5b200ac8c7c3b925",
            "0x0000000000000000000000004e9b091b3ded8121d67e3835f65b26d89a0471e6",
            "0x000000000000000000000000f694e193200268f9a4868e4aa017a0118c9a8177"
          ],
          "data": "0x00000000000000000000000000000000000000000000000000000000000f4240",
          "blockHash": "0x309286841ce3673dd76e6fe2643c8c2f554ed281f839f45ff225de80d214ab51",
          "blockNumber": "0x2852486",
          "transactionHash": "0x691ea32655c54332298f2ac12dd861109334d97930ce9805d3115fc96d1eca14",
          "transactionIndex": "0x10",
          "logIndex": "0x30",
          "removed": false
        },
        {
          "address": "0x0b9d5d9136855f6fec3c0993fee6e9ce8a297846",
          "topics": [
            "0xddf252ad1be2c89b69c2b068fc378daa952ba7f163c4a11628f55a4df523b3ef",
            "0x0000000000000000000000004e9b091b3ded8121d67e3835f65b26d89a0471e6",
            "0x00000000000000000000000075b9a75ee1ffef6be7c4f842a041de7c6153cf4e"
          ],
          "data": "0x0000000000000000000000000000000000000000000000000047036df99f0bee",
          "blockHash": "0x309286841ce3673dd76e6fe2643c8c2f554ed281f839f45ff225de80d214ab51",
          "blockNumber": "0x2852486",
          "transactionHash": "0x691ea32655c54332298f2ac12dd861109334d97930ce9805d3115fc96d1eca14",
          "transactionIndex": "0x10",
          "logIndex": "0x31",
          "removed": false
        },
        {
          "address": "0x60a15ca6b63508562d0cdc9cf896a9e3bbf79463",
          "topics": [
            "0xddf252ad1be2c89b69c2b068fc378daa952ba7f163c4a11628f55a4df523b3ef",
            "0x0000000000000000000000004e9b091b3ded8121d67e3835f65b26d89a0471e6",
            "0x0000000000000000000000002d9bf08c367fe7cf2d5d76e43fcfe46ce7660691"
          ],
          "data": "0x00000000000000000000000000000000000000000000000000000000000f4240",
          "blockHash": "0x309286841ce3673dd76e6fe2643c8c2f554ed281f839f45ff225de80d214ab51",
          "blockNumber": "0x2852486",
          "transactionHash": "0x691ea32655c54332298f2ac12dd861109334d97930ce9805d3115fc96d1eca14",
          "transactionIndex": "0x10",
          "logIndex": "0x32",
          "removed": false
        },
        {
          "address": "0x60a15ca6b63508562d0cdc9cf896a9e3bbf79463",
          "topics": [
            "0xddf252ad1be2c89b69c2b068fc378daa952ba7f163c4a11628f55a4df523b3ef",
            "0x0000000000000000000000002d9bf08c367fe7cf2d5d76e43fcfe46ce7660691",
            "0x0000000000000000000000000000000000000000000000000000000000000000"
          ],
          "data": "0x00000000000000000000000000000000000000000000000000000000000f4240",
          "blockHash": "0x309286841ce3673dd76e6fe2643c8c2f554ed281f839f45ff225de80d214ab51",
          "blockNumber": "0x2852486",
          "transactionHash": "0x691ea32655c54332298f2ac12dd861109334d97930ce9805d3115fc96d1eca14",
          "transactionIndex": "0x10",
          "logIndex": "0x33",
          "removed": false
        },
        {
          "address": "0x2d9bf08c367fe7cf2d5d76e43fcfe46ce7660691",
          "topics": [
            "0x696de425f79f4a40bc6d2122ca50507f0efbeabbff86a84871b7196ab8ea8df7",
            "0x00000000000000000000000075b9a75ee1ffef6be7c4f842a041de7c6153cf4e"
          ],
          "data": "0x00000000000000000000000000000000000000000000000000000000000f4240",
          "blockHash": "0x309286841ce3673dd76e6fe2643c8c2f554ed281f839f45ff225de80d214ab51",
          "blockNumber": "0x2852486",
          "transactionHash": "0x691ea32655c54332298f2ac12dd861109334d97930ce9805d3115fc96d1eca14",
          "transactionIndex": "0x10",
          "logIndex": "0x34",
          "removed": false
        },
        {
          "address": "0x75b9a75ee1ffef6be7c4f842a041de7c6153cf4e",
          "topics": [
            "0xd0c3c799bf9e2639de44391e7f524d229b2b55f5b1ea94b2bf7da42f7243dddd"
          ],
          "data": "0x0000000000000000000000000000000000000000000000000000000000000020000000000000000000000000000000000000000000000000ccf0a31a221f3c9b0000000000000000000000004e9b091b3ded8121d67e3835f65b26d89a0471e60000000000000000000000004385cca9d33ea995fd1babe5408a88614a79cfc6000000000000000000000000000000000000000000000000000000000000121600000000000000000000000000000000000000000000000000000000002625a0000000000000000000000000000000000000000000000000000000000000000000000000000000000000000000000000000000000000000000000000000000000000000000000000000000000b9d5d9136855f6fec3c0993fee6e9ce8a2978460000000000000000000000000000000000000000000000000047036df99f0bee00000000000000000000000000000000000000000000000000000000000001a0000000000000000000000000000000000000000000000000000000000000028000000000000000000000000000000000000000000000000000000000000002e0c779500b45c4d03996b87a632eee6a8a9278ae9bad65ba8d54e7aeebcdf51c5500000000000000000000000000000000000000000000000000000000000000c0000000000000000000000000000000000000000000000000000000000000008000000000000000000000000000000000000000000000000000000000000f424000000000000000000000000060a15ca6b63508562d0cdc9cf896a9e3bbf794630000000000000000000000000000000000000000000000000000000000000000000000000000000000000000000000000000000000000000000000000000000c4445504c4f595f46554e44530000000000000000000000000000000000000000000000000000000000000000000000000000000000000000000000000000000100000000000000000000000060a15ca6b63508562d0cdc9cf896a9e3bbf7946300000000000000000000000000000000000000000000000000000000000f42400000000000000000000000000000000000000000000000000000000000000001000000000000000000000000000000000000000000000000000000000000002000000000000000000000000000000000000000000000000000000000000001600000000000000000000000000000000000000000000000000000000000000020000000000000000000000000000000000000000000000000000000000000008000000000000000000000000000000000000000000000000000000000000000c000000000000000000000000000000000000000000000000000000000000001000000000000000000000000000000000000000000000000000000000000015f9000000000000000000000000000000000000000000000000000000000000000200000000000000000000000002d9bf08c367fe7cf2d5d76e43fcfe46ce7660691000000000000000000000000000000000000000000000000000000000000002000000000000000000000000060a15ca6b63508562d0cdc9cf896a9e3bbf7946300000000000000000000000000000000000000000000000000000000000000200000000000000000000000000000000000000000000000000000000000000012",
          "blockHash": "0x309286841ce3673dd76e6fe2643c8c2f554ed281f839f45ff225de80d214ab51",
          "blockNumber": "0x2852486",
          "transactionHash": "0x691ea32655c54332298f2ac12dd861109334d97930ce9805d3115fc96d1eca14",
          "transactionIndex": "0x10",
          "logIndex": "0x35",
          "removed": false
        },
        {
          "address": "0x4e9b091b3ded8121d67e3835f65b26d89a0471e6",
          "topics": [
            "0x091ab715760899af2cbb5ec99e800a213e48b0754ed63681b178aab4c84ccebd",
            "0xc779500b45c4d03996b87a632eee6a8a9278ae9bad65ba8d54e7aeebcdf51c55",
            "0x000000000000000000000000000000000000000000000000de41ba4fc9d91ad9"
          ],
          "data": "0x0000000000000000000000004385cca9d33ea995fd1babe5408a88614a79cfc600000000000000000000000000000000000000000000000000000000000f42400000000000000000000000000000000000000000000000000047036df99f0bee",
          "blockHash": "0x309286841ce3673dd76e6fe2643c8c2f554ed281f839f45ff225de80d214ab51",
          "blockNumber": "0x2852486",
          "transactionHash": "0x691ea32655c54332298f2ac12dd861109334d97930ce9805d3115fc96d1eca14",
          "transactionIndex": "0x10",
          "logIndex": "0x36",
          "removed": false
        }
      ],
      "logsBloom": "0x010000000000000000050000000000000000000000000400000000000000000000000000000048000020000000000000000000000000000000000020002000000000000000000000000100080000000000000000000000000000000000000000000000000600000000000000000108060000000000080000000000100000000800080000000100000100000008000000004000200000200000000000000000000200400000000006000000010000080000800000000408000001001001000000000000020002000000000088000000000000000000400008000000020000200000100000000000000000000020000000a4000200000000000000000100000000",
      "type": "0x2",
      "transactionHash": "0x691ea32655c54332298f2ac12dd861109334d97930ce9805d3115fc96d1eca14",
      "transactionIndex": "0x10",
      "blockHash": "0x309286841ce3673dd76e6fe2643c8c2f554ed281f839f45ff225de80d214ab51",
      "blockNumber": "0x2852486",
      "gasUsed": "0x5e07c",
      "effectiveGasPrice": "0x2",
      "from": "0x0bd7dd9a885d9526ff82813829ef5c7d8afdb8c4",
      "to": "0x4e9b091b3ded8121d67e3835f65b26d89a0471e6",
      "contractAddress": null
    }
  ],
  "libraries": [],
  "pending": [],
  "returns": {},
  "timestamp": 1750594285,
  "chain": 43113,
  "commit": "0a309be"
}