{
  "transactions": [
    {
      "hash": "0x28ea9bf2dfe5cf6bdc637710d33c3e877d6fd5d4999ae489f50e0b721fad7b6d",
      "transactionType": "CALL",
      "contractName": null,
      "contractAddress": "0x60a15ca6b63508562d0cdc9cf896a9e3bbf79463",
      "function": "approve(address,uint256)",
      "arguments": [
        "0xF694E193200268f9a4868e4Aa017A0118C9a8177",
        "1000000000000000000"
      ],
      "transaction": {
        "from": "0x0bd7dd9a885d9526ff82813829ef5c7d8afdb8c4",
        "to": "0x60a15ca6b63508562d0cdc9cf896a9e3bbf79463",
        "gas": "0xfd73",
        "value": "0x0",
        "input": "0x095ea7b3000000000000000000000000f694e193200268f9a4868e4aa017a0118c9a81770000000000000000000000000000000000000000000000000de0b6b3a7640000",
        "nonce": "0xa",
        "chainId": "0xa869"
      },
      "additionalContracts": [],
      "isFixedGasLimit": false
    },
    {
      "hash": "0xe48cf4ca62534f78e23b7f9e1eda5a2bd258adf72b47fca654aaba419e3e6072",
      "transactionType": "CALL",
      "contractName": null,
      "contractAddress": "0xf694e193200268f9a4868e4aa017a0118c9a8177",
      "function": "ccipSend(uint64,(bytes,bytes,(address,uint256)[],address,bytes))",
      "arguments": [
        "16015286601757825753",
        "(0x0000000000000000000000000bd7dd9a885d9526ff82813829ef5c7d8afdb8c4, 0x, [(0x60A15CA6b63508562d0Cdc9Cf896A9e3bBF79463, 1000000000000000000)], 0x0000000000000000000000000000000000000000, 0x97a657c90000000000000000000000000000000000000000000000000000000000000000)"
      ],
      "transaction": {
        "from": "0x0bd7dd9a885d9526ff82813829ef5c7d8afdb8c4",
        "to": "0xf694e193200268f9a4868e4aa017a0118c9a8177",
        "gas": "0x4e632",
        "value": "0x35a9a91a32dd64",
        "input": "0x96f4e9f9000000000000000000000000000000000000000000000000de41ba4fc9d91ad9000000000000000000000000000000000000000000000000000000000000004000000000000000000000000000000000000000000000000000000000000000a000000000000000000000000000000000000000000000000000000000000000e000000000000000000000000000000000000000000000000000000000000001000000000000000000000000000000000000000000000000000000000000000000000000000000000000000000000000000000000000000000000000000000016000000000000000000000000000000000000000000000000000000000000000200000000000000000000000000bd7dd9a885d9526ff82813829ef5c7d8afdb8c40000000000000000000000000000000000000000000000000000000000000000000000000000000000000000000000000000000000000000000000000000000100000000000000000000000060a15ca6b63508562d0cdc9cf896a9e3bbf794630000000000000000000000000000000000000000000000000de0b6b3a7640000000000000000000000000000000000000000000000000000000000000000002497a657c9000000000000000000000000000000000000000000000000000000000000000000000000000000000000000000000000000000000000000000000000",
        "nonce": "0xb",
        "chainId": "0xa869"
      },
      "additionalContracts": [],
      "isFixedGasLimit": false
    }
  ],
  "receipts": [
    {
      "status": "0x1",
      "cumulativeGasUsed": "0xabe76",
      "logs": [
        {
          "address": "0x60a15ca6b63508562d0cdc9cf896a9e3bbf79463",
          "topics": [
            "0x8c5be1e5ebec7d5bd14f71427d1e84f3dd0314c0f7b2291e5b200ac8c7c3b925",
            "0x0000000000000000000000000bd7dd9a885d9526ff82813829ef5c7d8afdb8c4",
            "0x000000000000000000000000f694e193200268f9a4868e4aa017a0118c9a8177"
          ],
          "data": "0x0000000000000000000000000000000000000000000000000de0b6b3a7640000",
          "blockHash": "0x76d80cbb6b6163a80ce34bfb8b2a201018ba7223c5df1f14f32e38ca912e9aa8",
          "blockNumber": "0x284e3c1",
          "transactionHash": "0x28ea9bf2dfe5cf6bdc637710d33c3e877d6fd5d4999ae489f50e0b721fad7b6d",
          "transactionIndex": "0x4",
          "logIndex": "0x3",
          "removed": false
        }
      ],
      "logsBloom": "0x000000000000000000010000000000000000000000000000000000000000000000000000000008000000000000000000000000000000000000000000002000000000000000000000000000000000000000000000000000000000000000000000000000000000000000000000000000000000000000000000000000000000000000000000000000000100000000000000004000000000200000000000000000000200000000000000000000000000000000800000000000000000000000000000000000000000000000000000000000000000000000000000000000000000000000100000000000000000000000000000a0000200000000000000000000000000",
      "type": "0x2",
      "transactionHash": "0x28ea9bf2dfe5cf6bdc637710d33c3e877d6fd5d4999ae489f50e0b721fad7b6d",
      "transactionIndex": "0x4",
      "blockHash": "0x76d80cbb6b6163a80ce34bfb8b2a201018ba7223c5df1f14f32e38ca912e9aa8",
      "blockNumber": "0x284e3c1",
      "gasUsed": "0xb77f",
      "effectiveGasPrice": "0x2",
      "from": "0x0bd7dd9a885d9526ff82813829ef5c7d8afdb8c4",
      "to": "0x60a15ca6b63508562d0cdc9cf896a9e3bbf79463",
      "contractAddress": null
    },
    {
      "status": "0x1",
      "cumulativeGasUsed": "0xec640",
      "logs": [
        {
          "address": "0xd00ae08403b9bbb9124bb305c09058e32c39a48c",
          "topics": [
            "0xe1fffcc4923d04b559f4d29a8bfc6cda04eb5b0d3c460751c2402c5c5cc9109c",
            "0x000000000000000000000000f694e193200268f9a4868e4aa017a0118c9a8177"
          ],
          "data": "0x0000000000000000000000000000000000000000000000000035a9a91a32dd64",
          "blockHash": "0x76d80cbb6b6163a80ce34bfb8b2a201018ba7223c5df1f14f32e38ca912e9aa8",
          "blockNumber": "0x284e3c1",
          "transactionHash": "0xe48cf4ca62534f78e23b7f9e1eda5a2bd258adf72b47fca654aaba419e3e6072",
          "transactionIndex": "0x5",
          "logIndex": "0x4",
          "removed": false
        },
        {
          "address": "0xd00ae08403b9bbb9124bb305c09058e32c39a48c",
          "topics": [
            "0xddf252ad1be2c89b69c2b068fc378daa952ba7f163c4a11628f55a4df523b3ef",
            "0x000000000000000000000000f694e193200268f9a4868e4aa017a0118c9a8177",
            "0x00000000000000000000000075b9a75ee1ffef6be7c4f842a041de7c6153cf4e"
          ],
          "data": "0x0000000000000000000000000000000000000000000000000035a9a91a32dd64",
          "blockHash": "0x76d80cbb6b6163a80ce34bfb8b2a201018ba7223c5df1f14f32e38ca912e9aa8",
          "blockNumber": "0x284e3c1",
          "transactionHash": "0xe48cf4ca62534f78e23b7f9e1eda5a2bd258adf72b47fca654aaba419e3e6072",
          "transactionIndex": "0x5",
          "logIndex": "0x5",
          "removed": false
        },
        {
          "address": "0x60a15ca6b63508562d0cdc9cf896a9e3bbf79463",
          "topics": [
            "0xddf252ad1be2c89b69c2b068fc378daa952ba7f163c4a11628f55a4df523b3ef",
            "0x0000000000000000000000000bd7dd9a885d9526ff82813829ef5c7d8afdb8c4",
            "0x0000000000000000000000002d9bf08c367fe7cf2d5d76e43fcfe46ce7660691"
          ],
          "data": "0x0000000000000000000000000000000000000000000000000de0b6b3a7640000",
          "blockHash": "0x76d80cbb6b6163a80ce34bfb8b2a201018ba7223c5df1f14f32e38ca912e9aa8",
          "blockNumber": "0x284e3c1",
          "transactionHash": "0xe48cf4ca62534f78e23b7f9e1eda5a2bd258adf72b47fca654aaba419e3e6072",
          "transactionIndex": "0x5",
          "logIndex": "0x6",
          "removed": false
        },
        {
          "address": "0x60a15ca6b63508562d0cdc9cf896a9e3bbf79463",
          "topics": [
            "0xddf252ad1be2c89b69c2b068fc378daa952ba7f163c4a11628f55a4df523b3ef",
            "0x0000000000000000000000002d9bf08c367fe7cf2d5d76e43fcfe46ce7660691",
            "0x0000000000000000000000000000000000000000000000000000000000000000"
          ],
          "data": "0x0000000000000000000000000000000000000000000000000de0b6b3a7640000",
          "blockHash": "0x76d80cbb6b6163a80ce34bfb8b2a201018ba7223c5df1f14f32e38ca912e9aa8",
          "blockNumber": "0x284e3c1",
          "transactionHash": "0xe48cf4ca62534f78e23b7f9e1eda5a2bd258adf72b47fca654aaba419e3e6072",
          "transactionIndex": "0x5",
          "logIndex": "0x7",
          "removed": false
        },
        {
          "address": "0x2d9bf08c367fe7cf2d5d76e43fcfe46ce7660691",
          "topics": [
            "0x696de425f79f4a40bc6d2122ca50507f0efbeabbff86a84871b7196ab8ea8df7",
            "0x00000000000000000000000075b9a75ee1ffef6be7c4f842a041de7c6153cf4e"
          ],
          "data": "0x0000000000000000000000000000000000000000000000000de0b6b3a7640000",
          "blockHash": "0x76d80cbb6b6163a80ce34bfb8b2a201018ba7223c5df1f14f32e38ca912e9aa8",
          "blockNumber": "0x284e3c1",
          "transactionHash": "0xe48cf4ca62534f78e23b7f9e1eda5a2bd258adf72b47fca654aaba419e3e6072",
          "transactionIndex": "0x5",
          "logIndex": "0x8",
          "removed": false
        },
        {
          "address": "0x75b9a75ee1ffef6be7c4f842a041de7c6153cf4e",
          "topics": [
            "0xd0c3c799bf9e2639de44391e7f524d229b2b55f5b1ea94b2bf7da42f7243dddd"
          ],
          "data": "0x0000000000000000000000000000000000000000000000000000000000000020000000000000000000000000000000000000000000000000ccf0a31a221f3c9b0000000000000000000000000bd7dd9a885d9526ff82813829ef5c7d8afdb8c40000000000000000000000000bd7dd9a885d9526ff82813829ef5c7d8afdb8c40000000000000000000000000000000000000000000000000000000000001213000000000000000000000000000000000000000000000000000000000000000000000000000000000000000000000000000000000000000000000000000000000000000000000000000000000000000000000000000000000000000000000001000000000000000000000000d00ae08403b9bbb9124bb305c09058e32c39a48c0000000000000000000000000000000000000000000000000035a9a91a32dd6400000000000000000000000000000000000000000000000000000000000001a000000000000000000000000000000000000000000000000000000000000001c00000000000000000000000000000000000000000000000000000000000000220aa994aa5eb6e3e2a7420ed9ddc23188f43432709ef00000e4a963e55a5eda5220000000000000000000000000000000000000000000000000000000000000000000000000000000000000000000000000000000000000000000000000000000100000000000000000000000060a15ca6b63508562d0cdc9cf896a9e3bbf794630000000000000000000000000000000000000000000000000de0b6b3a76400000000000000000000000000000000000000000000000000000000000000000001000000000000000000000000000000000000000000000000000000000000002000000000000000000000000000000000000000000000000000000000000001600000000000000000000000000000000000000000000000000000000000000020000000000000000000000000000000000000000000000000000000000000008000000000000000000000000000000000000000000000000000000000000000c000000000000000000000000000000000000000000000000000000000000001000000000000000000000000000000000000000000000000000000000000015f9000000000000000000000000000000000000000000000000000000000000000200000000000000000000000002d9bf08c367fe7cf2d5d76e43fcfe46ce7660691000000000000000000000000000000000000000000000000000000000000002000000000000000000000000060a15ca6b63508562d0cdc9cf896a9e3bbf7946300000000000000000000000000000000000000000000000000000000000000200000000000000000000000000000000000000000000000000000000000000012",
          "blockHash": "0x76d80cbb6b6163a80ce34bfb8b2a201018ba7223c5df1f14f32e38ca912e9aa8",
          "blockNumber": "0x284e3c1",
          "transactionHash": "0xe48cf4ca62534f78e23b7f9e1eda5a2bd258adf72b47fca654aaba419e3e6072",
          "transactionIndex": "0x5",
          "logIndex": "0x9",
          "removed": false
        }
      ],
      "logsBloom": "0x000000000000000000010000000000000000000000000400000000000000000000000000000008000020000000000000000000000000000000000020000000000000000000000000000000080000000000000000000000000000000080000000000000000600000000000000000008020000000000280000000000100000000000080000000000000100000000200000004000010000200000000000000000000000000000000004000000010000000000800000000008000001001000000000000000020002000000000088000000000000000000400000000000000000200000000000000000000800000000000000a4000200000000400000000100000000",
      "type": "0x2",
      "transactionHash": "0xe48cf4ca62534f78e23b7f9e1eda5a2bd258adf72b47fca654aaba419e3e6072",
      "transactionIndex": "0x5",
      "blockHash": "0x76d80cbb6b6163a80ce34bfb8b2a201018ba7223c5df1f14f32e38ca912e9aa8",
      "blockNumber": "0x284e3c1",
      "gasUsed": "0x407ca",
      "effectiveGasPrice": "0x2",
      "from": "0x0bd7dd9a885d9526ff82813829ef5c7d8afdb8c4",
      "to": "0xf694e193200268f9a4868e4aa017a0118c9a8177",
      "contractAddress": null
    }
  ],
  "libraries": [],
  "pending": [],
  "returns": {},
  "timestamp": 1750567655,
  "chain": 43113,
  "commit": "0a309be"
}